{
  "_format": "hh-sol-artifact-1",
  "contractName": "LGBTQJobMarketVerified",
  "sourceName": "contracts/jobsVerified.sol",
  "abi": [
    {
      "anonymous": false,
      "inputs": [
        {
          "indexed": true,
          "internalType": "address",
          "name": "owner",
          "type": "address"
        },
        {
          "indexed": false,
          "internalType": "string",
          "name": "companyName",
          "type": "string"
        }
      ],
      "name": "CompanyCreated",
      "type": "event"
    },
    {
      "anonymous": false,
      "inputs": [
        {
          "indexed": false,
          "internalType": "uint256",
          "name": "applicationId",
          "type": "uint256"
        },
        {
          "indexed": true,
          "internalType": "address",
          "name": "applicant",
          "type": "address"
        },
        {
          "indexed": true,
          "internalType": "uint256",
          "name": "jobId",
          "type": "uint256"
        }
      ],
      "name": "JobApplied",
      "type": "event"
    },
    {
      "anonymous": false,
      "inputs": [
        {
          "indexed": false,
          "internalType": "uint256",
          "name": "jobId",
          "type": "uint256"
        },
        {
          "indexed": true,
          "internalType": "address",
          "name": "employer",
          "type": "address"
        },
        {
          "indexed": false,
          "internalType": "string",
          "name": "jobTitle",
          "type": "string"
        }
      ],
      "name": "JobPosted",
      "type": "event"
    },
    {
      "anonymous": false,
      "inputs": [
        {
          "indexed": true,
          "internalType": "address",
          "name": "user",
          "type": "address"
        },
        {
          "indexed": false,
          "internalType": "string",
          "name": "tag",
          "type": "string"
        }
      ],
      "name": "SubscriptionAdded",
      "type": "event"
    },
    {
      "anonymous": false,
      "inputs": [
        {
          "indexed": true,
          "internalType": "address",
          "name": "user",
          "type": "address"
        },
        {
          "indexed": false,
          "internalType": "string",
          "name": "username",
          "type": "string"
        }
      ],
      "name": "UserCreated",
      "type": "event"
    },
    {
      "inputs": [],
      "name": "EPNS_COMM_ADDRESS",
      "outputs": [
        {
          "internalType": "address",
          "name": "",
          "type": "address"
        }
      ],
      "stateMutability": "view",
      "type": "function"
    },
    {
      "inputs": [
        {
          "internalType": "uint256",
          "name": "_jobId",
          "type": "uint256"
        },
        {
          "internalType": "string",
          "name": "_resumeHash",
          "type": "string"
        }
      ],
      "name": "applyForJob",
      "outputs": [],
      "stateMutability": "nonpayable",
      "type": "function"
    },
    {
      "inputs": [
        {
          "internalType": "address",
          "name": "",
          "type": "address"
        }
      ],
      "name": "companies",
      "outputs": [
        {
          "internalType": "address",
          "name": "owner",
          "type": "address"
        },
        {
          "internalType": "string",
          "name": "companyName",
          "type": "string"
        },
        {
          "internalType": "string",
          "name": "companyDescription",
          "type": "string"
        }
      ],
      "stateMutability": "view",
      "type": "function"
    },
    {
      "inputs": [],
      "name": "companyCount",
      "outputs": [
        {
          "internalType": "uint256",
          "name": "",
          "type": "uint256"
        }
      ],
      "stateMutability": "view",
      "type": "function"
    },
    {
      "inputs": [
        {
          "internalType": "string",
          "name": "_companyName",
          "type": "string"
        },
        {
          "internalType": "string",
          "name": "_companyDescription",
          "type": "string"
        }
      ],
      "name": "createCompany",
      "outputs": [],
      "stateMutability": "nonpayable",
      "type": "function"
    },
    {
      "inputs": [
        {
          "internalType": "string",
          "name": "_username",
          "type": "string"
        }
      ],
      "name": "createUser",
      "outputs": [],
      "stateMutability": "nonpayable",
      "type": "function"
    },
    {
      "inputs": [
        {
          "internalType": "uint256",
          "name": "_jobId",
          "type": "uint256"
        }
      ],
      "name": "getApplicationsForJob",
      "outputs": [
        {
          "components": [
            {
              "internalType": "address",
              "name": "applicant",
              "type": "address"
            },
            {
              "internalType": "uint256",
              "name": "jobId",
              "type": "uint256"
            },
            {
              "internalType": "string",
              "name": "resumeHash",
              "type": "string"
            }
          ],
          "internalType": "struct LGBTQJobMarketVerified.JobApplication[]",
          "name": "",
          "type": "tuple[]"
        }
      ],
      "stateMutability": "view",
      "type": "function"
    },
    {
      "inputs": [],
      "name": "getJobs",
      "outputs": [
        {
          "components": [
            {
              "internalType": "address",
              "name": "employer",
              "type": "address"
            },
            {
              "internalType": "string",
              "name": "jobTitle",
              "type": "string"
            },
            {
              "internalType": "string",
              "name": "jobDescription",
              "type": "string"
            },
            {
              "internalType": "string",
              "name": "companyName",
              "type": "string"
            },
            {
              "internalType": "uint256",
              "name": "salary",
              "type": "uint256"
            },
            {
              "internalType": "string[]",
              "name": "tags",
              "type": "string[]"
            }
          ],
          "internalType": "struct LGBTQJobMarketVerified.JobPosting[]",
          "name": "",
          "type": "tuple[]"
        }
      ],
      "stateMutability": "view",
      "type": "function"
    },
    {
      "inputs": [
        {
          "internalType": "address",
          "name": "_user",
          "type": "address"
        }
      ],
      "name": "getTagsSubscribedByUser",
      "outputs": [
        {
          "internalType": "string[]",
          "name": "",
          "type": "string[]"
        }
      ],
      "stateMutability": "view",
      "type": "function"
    },
    {
      "inputs": [
        {
          "internalType": "string",
          "name": "_tag",
          "type": "string"
        }
      ],
      "name": "getUsersSubscribedToTag",
      "outputs": [
        {
          "internalType": "address[]",
          "name": "",
          "type": "address[]"
        }
      ],
      "stateMutability": "view",
      "type": "function"
    },
    {
      "inputs": [],
      "name": "jobApplicationCount",
      "outputs": [
        {
          "internalType": "uint256",
          "name": "",
          "type": "uint256"
        }
      ],
      "stateMutability": "view",
      "type": "function"
    },
    {
      "inputs": [
        {
          "internalType": "uint256",
          "name": "",
          "type": "uint256"
        }
      ],
      "name": "jobApplications",
      "outputs": [
        {
          "internalType": "address",
          "name": "applicant",
          "type": "address"
        },
        {
          "internalType": "uint256",
          "name": "jobId",
          "type": "uint256"
        },
        {
          "internalType": "string",
          "name": "resumeHash",
          "type": "string"
        }
      ],
      "stateMutability": "view",
      "type": "function"
    },
    {
      "inputs": [],
      "name": "jobPostingCount",
      "outputs": [
        {
          "internalType": "uint256",
          "name": "",
          "type": "uint256"
        }
      ],
      "stateMutability": "view",
      "type": "function"
    },
    {
      "inputs": [
        {
          "internalType": "uint256",
          "name": "",
          "type": "uint256"
        }
      ],
      "name": "jobPostings",
      "outputs": [
        {
          "internalType": "address",
          "name": "employer",
          "type": "address"
        },
        {
          "internalType": "string",
          "name": "jobTitle",
          "type": "string"
        },
        {
          "internalType": "string",
          "name": "jobDescription",
          "type": "string"
        },
        {
          "internalType": "string",
          "name": "companyName",
          "type": "string"
        },
        {
          "internalType": "uint256",
          "name": "salary",
          "type": "uint256"
        }
      ],
      "stateMutability": "view",
      "type": "function"
    },
    {
      "inputs": [
        {
          "internalType": "string",
          "name": "",
          "type": "string"
        }
      ],
      "name": "jobsByTag",
      "outputs": [
        {
          "internalType": "address",
          "name": "employer",
          "type": "address"
        },
        {
          "internalType": "string",
          "name": "jobTitle",
          "type": "string"
        },
        {
          "internalType": "string",
          "name": "jobDescription",
          "type": "string"
        },
        {
          "internalType": "string",
          "name": "companyName",
          "type": "string"
        },
        {
          "internalType": "uint256",
          "name": "salary",
          "type": "uint256"
        }
      ],
      "stateMutability": "view",
      "type": "function"
    },
    {
      "inputs": [
        {
          "internalType": "string",
          "name": "_jobTitle",
          "type": "string"
        },
        {
          "internalType": "string",
          "name": "_jobDescription",
          "type": "string"
        },
        {
          "internalType": "string",
          "name": "_companyName",
          "type": "string"
        },
        {
          "internalType": "uint256",
          "name": "_salary",
          "type": "uint256"
        },
        {
          "internalType": "string[]",
          "name": "_tags",
          "type": "string[]"
        },
        {
          "internalType": "uint256[2]",
          "name": "_pA",
          "type": "uint256[2]"
        },
        {
          "internalType": "uint256[2][2]",
          "name": "_pB",
          "type": "uint256[2][2]"
        },
        {
          "internalType": "uint256[2]",
          "name": "_pC",
          "type": "uint256[2]"
        },
        {
          "internalType": "uint256[34]",
          "name": "_pubSignals",
          "type": "uint256[34]"
        }
      ],
      "name": "postJob",
      "outputs": [],
      "stateMutability": "nonpayable",
      "type": "function"
    },
    {
      "inputs": [
        {
          "internalType": "string",
          "name": "_tag",
          "type": "string"
        }
      ],
      "name": "subscribeToTag",
      "outputs": [],
      "stateMutability": "nonpayable",
      "type": "function"
    },
    {
      "inputs": [
        {
          "internalType": "string",
          "name": "",
          "type": "string"
        },
        {
          "internalType": "uint256",
          "name": "",
          "type": "uint256"
        }
      ],
      "name": "tagSubscibers",
      "outputs": [
        {
          "internalType": "address",
          "name": "",
          "type": "address"
        }
      ],
      "stateMutability": "view",
      "type": "function"
    },
    {
      "inputs": [],
      "name": "userCount",
      "outputs": [
        {
          "internalType": "uint256",
          "name": "",
          "type": "uint256"
        }
      ],
      "stateMutability": "view",
      "type": "function"
    },
    {
      "inputs": [
        {
          "internalType": "address",
          "name": "",
          "type": "address"
        },
        {
          "internalType": "uint256",
          "name": "",
          "type": "uint256"
        }
      ],
      "name": "userSubscriptions",
      "outputs": [
        {
          "internalType": "string",
          "name": "",
          "type": "string"
        }
      ],
      "stateMutability": "view",
      "type": "function"
    },
    {
      "inputs": [
        {
          "internalType": "address",
          "name": "",
          "type": "address"
        }
      ],
      "name": "users",
      "outputs": [
        {
          "internalType": "string",
          "name": "username",
          "type": "string"
        },
        {
          "internalType": "address",
          "name": "userAddress",
          "type": "address"
        }
      ],
      "stateMutability": "view",
      "type": "function"
    },
    {
      "inputs": [
        {
          "internalType": "uint256[2]",
          "name": "_pA",
          "type": "uint256[2]"
        },
        {
          "internalType": "uint256[2][2]",
          "name": "_pB",
          "type": "uint256[2][2]"
        },
        {
          "internalType": "uint256[2]",
          "name": "_pC",
          "type": "uint256[2]"
        },
        {
          "internalType": "uint256[34]",
          "name": "_pubSignals",
          "type": "uint256[34]"
        }
      ],
      "name": "verify",
      "outputs": [
        {
          "internalType": "bool",
          "name": "",
          "type": "bool"
        }
      ],
      "stateMutability": "view",
      "type": "function"
    }
  ],
  "bytecode": "0x6080604052730c34d54a09cfe75bccd878a469206ae77e0fe6e76000806101000a81548173ffffffffffffffffffffffffffffffffffffffff021916908373ffffffffffffffffffffffffffffffffffffffff16021790555034801561006457600080fd5b5061421b806100746000396000f3fe608060405234801561001057600080fd5b50600436106101425760003560e01c80638bd56880116100b8578063a87430ba1161007c578063a87430ba146103ab578063c9124323146103dc578063c95d6edc1461040c578063e7898f181461043c578063f14513f21461046c578063f54c93e91461048857610142565b80638bd56880146102ed5780638bdb53551461030b5780638e304559146103295780638e75dd471461035d578063967c00601461037b57610142565b80634d91e57d1161010a5780634d91e57d14610201578063507ffba514610231578063622359b91461024d57806368581ebd14610281578063699687cf1461029f5780636c09a5e3146102d157610142565b806307973ccf146101475780631c891ce7146101655780633532bab414610181578063355e6ce8146101b157806348a3b4a4146101e3575b600080fd5b61014f6104a4565b60405161015c919061258b565b60405180910390f35b61017f600480360381019061017a9190612878565b6104aa565b005b61019b600480360381019061019691906129b3565b61088a565b6040516101a89190612aec565b60405180910390f35b6101cb60048036038101906101c69190612b3a565b6109eb565b6040516101da93929190612bf5565b60405180910390f35b6101eb610b45565b6040516101f89190612c3a565b60405180910390f35b61021b60048036038101906102169190612c55565b610b69565b6040516102289190612ded565b60405180910390f35b61024b600480360381019061024691906129b3565b610e93565b005b61026760048036038101906102629190612c55565b6110db565b604051610278959493929190612e0f565b60405180910390f35b6102896112c9565b6040516102969190613099565b60405180910390f35b6102b960048036038101906102b49190612c55565b611687565b6040516102c8939291906130bb565b60405180910390f35b6102eb60048036038101906102e691906130f9565b611759565b005b6102f56118c7565b604051610302919061258b565b60405180910390f35b6103136118cd565b604051610320919061258b565b60405180910390f35b610343600480360381019061033e91906129b3565b6118d3565b604051610354959493929190612e0f565b60405180910390f35b610365611ad7565b604051610372919061258b565b60405180910390f35b61039560048036038101906103909190612b3a565b611add565b6040516103a291906131db565b60405180910390f35b6103c560048036038101906103c09190612b3a565b611cdf565b6040516103d39291906131fd565b60405180910390f35b6103f660048036038101906103f1919061322d565b611dab565b60405161040391906132b1565b60405180910390f35b610426600480360381019061042191906132cc565b611e50565b604051610433919061330c565b60405180910390f35b6104566004803603810190610451919061332e565b611f09565b6040516104639190612c3a565b60405180910390f35b6104866004803603810190610481919061338a565b611f6d565b005b6104a2600480360381019061049d91906129b3565b6120bd565b005b60085481565b6104b684848484611dab565b6104f5576040517f08c379a00000000000000000000000000000000000000000000000000000000081526004016104ec9061344e565b60405180910390fd5b600960008154809291906105089061349d565b91905055506040518060c001604052803373ffffffffffffffffffffffffffffffffffffffff1681526020018a81526020018981526020018881526020018781526020018681525060016000600954815260200190815260200160002060008201518160000160006101000a81548173ffffffffffffffffffffffffffffffffffffffff021916908373ffffffffffffffffffffffffffffffffffffffff16021790555060208201518160010190816105c191906136f1565b5060408201518160020190816105d791906136f1565b5060608201518160030190816105ed91906136f1565b506080820151816004015560a08201518160050190805190602001906106149291906123b8565b5090505060005b855181101561074e57600160006009548152602001908152602001600020600387838151811061064e5761064d6137c3565b5b6020026020010151604051610663919061382e565b90815260200160405180910390206000820160009054906101000a900473ffffffffffffffffffffffffffffffffffffffff168160000160006101000a81548173ffffffffffffffffffffffffffffffffffffffff021916908373ffffffffffffffffffffffffffffffffffffffff160217905550600182018160010190816106ec919061385b565b5060028201816002019081610701919061385b565b5060038201816003019081610716919061385b565b50600482015481600401556005820181600501908054610737929190612411565b5090505080806107469061349d565b91505061061b565b5060008054906101000a900473ffffffffffffffffffffffffffffffffffffffff1673ffffffffffffffffffffffffffffffffffffffff1663ba3d69d773d44d3581954f8d6578a6f77975904dc378dcbd0d73a7597a561be84c31c97f70343bb4cee01d731a388a8d8c6009546040516020016107ce9493929190613b78565b6040516020818303038152906040526040518463ffffffff1660e01b81526004016107fb93929190613c72565b600060405180830381600087803b15801561081557600080fd5b505af1158015610829573d6000803e3d6000fd5b505050503373ffffffffffffffffffffffffffffffffffffffff167f874d4755e4be9f976c7833fc413deb77c1acbf096d6535b71953c36eb838cf406009548b604051610877929190613cb0565b60405180910390a2505050505050505050565b6060600060048360405161089e919061382e565b90815260200160405180910390208054905067ffffffffffffffff8111156108c9576108c86125d5565b5b6040519080825280602002602001820160405280156108f75781602001602082028036833780820191505090505b50905060005b60048460405161090d919061382e565b9081526020016040518091039020805490508110156109e157600484604051610936919061382e565b90815260200160405180910390208181548110610956576109556137c3565b5b9060005260206000200160009054906101000a900473ffffffffffffffffffffffffffffffffffffffff16828281518110610994576109936137c3565b5b602002602001019073ffffffffffffffffffffffffffffffffffffffff16908173ffffffffffffffffffffffffffffffffffffffff168152505080806109d99061349d565b9150506108fd565b5080915050919050565b60076020528060005260406000206000915090508060000160009054906101000a900473ffffffffffffffffffffffffffffffffffffffff1690806001018054610a3490613514565b80601f0160208091040260200160405190810160405280929190818152602001828054610a6090613514565b8015610aad5780601f10610a8257610100808354040283529160200191610aad565b820191906000526020600020905b815481529060010190602001808311610a9057829003601f168201915b505050505090806002018054610ac290613514565b80601f0160208091040260200160405190810160405280929190818152602001828054610aee90613514565b8015610b3b5780601f10610b1057610100808354040283529160200191610b3b565b820191906000526020600020905b815481529060010190602001808311610b1e57829003601f168201915b5050505050905083565b60008054906101000a900473ffffffffffffffffffffffffffffffffffffffff1681565b6060600082118015610b7d57506009548211155b610bbc576040517f08c379a0000000000000000000000000000000000000000000000000000000008152600401610bb390613d2c565b60405180910390fd5b6001600083815260200190815260200160002060000160009054906101000a900473ffffffffffffffffffffffffffffffffffffffff1673ffffffffffffffffffffffffffffffffffffffff163373ffffffffffffffffffffffffffffffffffffffff1614610c60576040517f08c379a0000000000000000000000000000000000000000000000000000000008152600401610c5790613dbe565b60405180910390fd5b600080600190505b600a548111610cb05783600260008381526020019081526020016000206001015403610c9d578180610c999061349d565b9250505b8080610ca89061349d565b915050610c68565b5060008167ffffffffffffffff811115610ccd57610ccc6125d5565b5b604051908082528060200260200182016040528015610d0657816020015b610cf361246e565b815260200190600190039081610ceb5790505b509050600080600190505b600a548111610e875785600260008381526020019081526020016000206001015403610e7457600260008281526020019081526020016000206040518060600160405290816000820160009054906101000a900473ffffffffffffffffffffffffffffffffffffffff1673ffffffffffffffffffffffffffffffffffffffff1673ffffffffffffffffffffffffffffffffffffffff16815260200160018201548152602001600282018054610dc590613514565b80601f0160208091040260200160405190810160405280929190818152602001828054610df190613514565b8015610e3e5780601f10610e1357610100808354040283529160200191610e3e565b820191906000526020600020905b815481529060010190602001808311610e2157829003601f168201915b505050505081525050838381518110610e5a57610e596137c3565b5b60200260200101819052508180610e709061349d565b9250505b8080610e7f9061349d565b915050610d11565b50819350505050919050565b6000815111610ed7576040517f08c379a0000000000000000000000000000000000000000000000000000000008152600401610ece90613e2a565b60405180910390fd5b600073ffffffffffffffffffffffffffffffffffffffff16600660003373ffffffffffffffffffffffffffffffffffffffff1673ffffffffffffffffffffffffffffffffffffffff16815260200190815260200160002060010160009054906101000a900473ffffffffffffffffffffffffffffffffffffffff1673ffffffffffffffffffffffffffffffffffffffff1614610fa8576040517f08c379a0000000000000000000000000000000000000000000000000000000008152600401610f9f90613e96565b60405180910390fd5b60086000815480929190610fbb9061349d565b919050555060405180604001604052808281526020013373ffffffffffffffffffffffffffffffffffffffff16815250600660003373ffffffffffffffffffffffffffffffffffffffff1673ffffffffffffffffffffffffffffffffffffffff168152602001908152602001600020600082015181600001908161103f91906136f1565b5060208201518160010160006101000a81548173ffffffffffffffffffffffffffffffffffffffff021916908373ffffffffffffffffffffffffffffffffffffffff1602179055509050503373ffffffffffffffffffffffffffffffffffffffff167f9954bce02f72fbdef0fa668ac6f42e434b5829615dac2fb22448054d2359d4f6826040516110d0919061330c565b60405180910390a250565b60016020528060005260406000206000915090508060000160009054906101000a900473ffffffffffffffffffffffffffffffffffffffff169080600101805461112490613514565b80601f016020809104026020016040519081016040528092919081815260200182805461115090613514565b801561119d5780601f106111725761010080835404028352916020019161119d565b820191906000526020600020905b81548152906001019060200180831161118057829003601f168201915b5050505050908060020180546111b290613514565b80601f01602080910402602001604051908101604052809291908181526020018280546111de90613514565b801561122b5780601f106112005761010080835404028352916020019161122b565b820191906000526020600020905b81548152906001019060200180831161120e57829003601f168201915b50505050509080600301805461124090613514565b80601f016020809104026020016040519081016040528092919081815260200182805461126c90613514565b80156112b95780601f1061128e576101008083540402835291602001916112b9565b820191906000526020600020905b81548152906001019060200180831161129c57829003601f168201915b5050505050908060040154905085565b6060600060095467ffffffffffffffff8111156112e9576112e86125d5565b5b60405190808252806020026020018201604052801561132257816020015b61130f6124a5565b8152602001906001900390816113075790505b5090506000600190505b600954811161167f57600160008281526020019081526020016000206040518060c00160405290816000820160009054906101000a900473ffffffffffffffffffffffffffffffffffffffff1673ffffffffffffffffffffffffffffffffffffffff1673ffffffffffffffffffffffffffffffffffffffff1681526020016001820180546113b990613514565b80601f01602080910402602001604051908101604052809291908181526020018280546113e590613514565b80156114325780601f1061140757610100808354040283529160200191611432565b820191906000526020600020905b81548152906001019060200180831161141557829003601f168201915b5050505050815260200160028201805461144b90613514565b80601f016020809104026020016040519081016040528092919081815260200182805461147790613514565b80156114c45780601f10611499576101008083540402835291602001916114c4565b820191906000526020600020905b8154815290600101906020018083116114a757829003601f168201915b505050505081526020016003820180546114dd90613514565b80601f016020809104026020016040519081016040528092919081815260200182805461150990613514565b80156115565780601f1061152b57610100808354040283529160200191611556565b820191906000526020600020905b81548152906001019060200180831161153957829003601f168201915b505050505081526020016004820154815260200160058201805480602002602001604051908101604052809291908181526020016000905b8282101561163a5783829060005260206000200180546115ad90613514565b80601f01602080910402602001604051908101604052809291908181526020018280546115d990613514565b80156116265780601f106115fb57610100808354040283529160200191611626565b820191906000526020600020905b81548152906001019060200180831161160957829003601f168201915b50505050508152602001906001019061158e565b5050505081525050826001836116509190613eb6565b81518110611661576116606137c3565b5b602002602001018190525080806116779061349d565b91505061132c565b508091505090565b60026020528060005260406000206000915090508060000160009054906101000a900473ffffffffffffffffffffffffffffffffffffffff16908060010154908060020180546116d690613514565b80601f016020809104026020016040519081016040528092919081815260200182805461170290613514565b801561174f5780601f106117245761010080835404028352916020019161174f565b820191906000526020600020905b81548152906001019060200180831161173257829003601f168201915b5050505050905083565b60008211801561176b57506009548211155b6117aa576040517f08c379a00000000000000000000000000000000000000000000000000000000081526004016117a190613d2c565b60405180910390fd5b600a60008154809291906117bd9061349d565b919050555060405180606001604052803373ffffffffffffffffffffffffffffffffffffffff1681526020018381526020018281525060026000600a54815260200190815260200160002060008201518160000160006101000a81548173ffffffffffffffffffffffffffffffffffffffff021916908373ffffffffffffffffffffffffffffffffffffffff16021790555060208201518160010155604082015181600201908161186e91906136f1565b50905050813373ffffffffffffffffffffffffffffffffffffffff167f81bbe3bd8cd7aca942797e968d27abaa8f12cfb189d8d0e56b49453fb8590c73600a546040516118bb919061258b565b60405180910390a35050565b600a5481565b60095481565b6003818051602081018201805184825260208301602085012081835280955050505050506000915090508060000160009054906101000a900473ffffffffffffffffffffffffffffffffffffffff169080600101805461193290613514565b80601f016020809104026020016040519081016040528092919081815260200182805461195e90613514565b80156119ab5780601f10611980576101008083540402835291602001916119ab565b820191906000526020600020905b81548152906001019060200180831161198e57829003601f168201915b5050505050908060020180546119c090613514565b80601f01602080910402602001604051908101604052809291908181526020018280546119ec90613514565b8015611a395780601f10611a0e57610100808354040283529160200191611a39565b820191906000526020600020905b815481529060010190602001808311611a1c57829003601f168201915b505050505090806003018054611a4e90613514565b80601f0160208091040260200160405190810160405280929190818152602001828054611a7a90613514565b8015611ac75780601f10611a9c57610100808354040283529160200191611ac7565b820191906000526020600020905b815481529060010190602001808311611aaa57829003601f168201915b5050505050908060040154905085565b600b5481565b60606000600560008473ffffffffffffffffffffffffffffffffffffffff1673ffffffffffffffffffffffffffffffffffffffff1681526020019081526020016000208054905067ffffffffffffffff811115611b3d57611b3c6125d5565b5b604051908082528060200260200182016040528015611b7057816020015b6060815260200190600190039081611b5b5790505b50905060005b600560008573ffffffffffffffffffffffffffffffffffffffff1673ffffffffffffffffffffffffffffffffffffffff16815260200190815260200160002080549050811015611cd557600560008573ffffffffffffffffffffffffffffffffffffffff1673ffffffffffffffffffffffffffffffffffffffff1681526020019081526020016000208181548110611c1157611c106137c3565b5b906000526020600020018054611c2690613514565b80601f0160208091040260200160405190810160405280929190818152602001828054611c5290613514565b8015611c9f5780601f10611c7457610100808354040283529160200191611c9f565b820191906000526020600020905b815481529060010190602001808311611c8257829003601f168201915b5050505050828281518110611cb757611cb66137c3565b5b60200260200101819052508080611ccd9061349d565b915050611b76565b5080915050919050565b6006602052806000526040600020600091509050806000018054611d0290613514565b80601f0160208091040260200160405190810160405280929190818152602001828054611d2e90613514565b8015611d7b5780601f10611d5057610100808354040283529160200191611d7b565b820191906000526020600020905b815481529060010190602001808311611d5e57829003601f168201915b5050505050908060010160009054906101000a900473ffffffffffffffffffffffffffffffffffffffff16905082565b6000807377a1c4bbf8cd126d38b53014040435ccaa46715890508073ffffffffffffffffffffffffffffffffffffffff16638525a61d878787876040518563ffffffff1660e01b8152600401611e049493929190613fd3565b602060405180830381865afa158015611e21573d6000803e3d6000fd5b505050506040513d601f19601f82011682018060405250810190611e459190614046565b915050949350505050565b60056020528160005260406000208181548110611e6c57600080fd5b90600052602060002001600091509150508054611e8890613514565b80601f0160208091040260200160405190810160405280929190818152602001828054611eb490613514565b8015611f015780601f10611ed657610100808354040283529160200191611f01565b820191906000526020600020905b815481529060010190602001808311611ee457829003601f168201915b505050505081565b6004828051602081018201805184825260208301602085012081835280955050505050508181548110611f3b57600080fd5b906000526020600020016000915091509054906101000a900473ffffffffffffffffffffffffffffffffffffffff1681565b600b6000815480929190611f809061349d565b919050555060405180606001604052803373ffffffffffffffffffffffffffffffffffffffff16815260200183815260200182815250600760003373ffffffffffffffffffffffffffffffffffffffff1673ffffffffffffffffffffffffffffffffffffffff16815260200190815260200160002060008201518160000160006101000a81548173ffffffffffffffffffffffffffffffffffffffff021916908373ffffffffffffffffffffffffffffffffffffffff160217905550602082015181600101908161205191906136f1565b50604082015181600201908161206791906136f1565b509050503373ffffffffffffffffffffffffffffffffffffffff167f85fab8e92bf0510a5cb6805fc4c546db423a5700b84984f94e2ddb727b132b65836040516120b1919061330c565b60405180910390a25050565b60006003826040516120cf919061382e565b908152602001604051809103902060010180546120eb90613514565b90501161212d576040517f08c379a0000000000000000000000000000000000000000000000000000000008152600401612124906140bf565b60405180910390fd5b60005b600560003373ffffffffffffffffffffffffffffffffffffffff1673ffffffffffffffffffffffffffffffffffffffff16815260200190815260200160002080549050811015612275578160405160200161218b919061382e565b60405160208183030381529060405280519060200120600560003373ffffffffffffffffffffffffffffffffffffffff1673ffffffffffffffffffffffffffffffffffffffff16815260200190815260200160002082815481106121f2576121f16137c3565b5b9060005260206000200160405160200161220c9190614162565b6040516020818303038152906040528051906020012003612262576040517f08c379a0000000000000000000000000000000000000000000000000000000008152600401612259906141c5565b60405180910390fd5b808061226d9061349d565b915050612130565b50600560003373ffffffffffffffffffffffffffffffffffffffff1673ffffffffffffffffffffffffffffffffffffffff168152602001908152602001600020819080600181540180825580915050600190039060005260206000200160009091909190915090816122e791906136f1565b506004816040516122f8919061382e565b9081526020016040518091039020339080600181540180825580915050600190039060005260206000200160009091909190916101000a81548173ffffffffffffffffffffffffffffffffffffffff021916908373ffffffffffffffffffffffffffffffffffffffff1602179055503373ffffffffffffffffffffffffffffffffffffffff167f6a9cd22100dd4a33e9185d27216965cc4e2653af8a6d90823a3d12d521ea88b4826040516123ad919061330c565b60405180910390a250565b828054828255906000526020600020908101928215612400579160200282015b828111156123ff5782518290816123ef91906136f1565b50916020019190600101906123d8565b5b50905061240d91906124f1565b5090565b82805482825590600052602060002090810192821561245d5760005260206000209182015b8281111561245c578282908161244c919061385b565b5091600101919060010190612436565b5b50905061246a91906124f1565b5090565b6040518060600160405280600073ffffffffffffffffffffffffffffffffffffffff16815260200160008152602001606081525090565b6040518060c00160405280600073ffffffffffffffffffffffffffffffffffffffff16815260200160608152602001606081526020016060815260200160008152602001606081525090565b5b8082111561251157600081816125089190612515565b506001016124f2565b5090565b50805461252190613514565b6000825580601f106125335750612552565b601f0160209004906000526020600020908101906125519190612555565b5b50565b5b8082111561256e576000816000905550600101612556565b5090565b6000819050919050565b61258581612572565b82525050565b60006020820190506125a0600083018461257c565b92915050565b6000604051905090565b600080fd5b600080fd5b600080fd5b600080fd5b6000601f19601f8301169050919050565b7f4e487b7100000000000000000000000000000000000000000000000000000000600052604160045260246000fd5b61260d826125c4565b810181811067ffffffffffffffff8211171561262c5761262b6125d5565b5b80604052505050565b600061263f6125a6565b905061264b8282612604565b919050565b600067ffffffffffffffff82111561266b5761266a6125d5565b5b612674826125c4565b9050602081019050919050565b82818337600083830152505050565b60006126a361269e84612650565b612635565b9050828152602081018484840111156126bf576126be6125bf565b5b6126ca848285612681565b509392505050565b600082601f8301126126e7576126e66125ba565b5b81356126f7848260208601612690565b91505092915050565b61270981612572565b811461271457600080fd5b50565b60008135905061272681612700565b92915050565b600067ffffffffffffffff821115612747576127466125d5565b5b602082029050602081019050919050565b600080fd5b600061277061276b8461272c565b612635565b9050808382526020820190506020840283018581111561279357612792612758565b5b835b818110156127da57803567ffffffffffffffff8111156127b8576127b76125ba565b5b8086016127c589826126d2565b85526020850194505050602081019050612795565b5050509392505050565b600082601f8301126127f9576127f86125ba565b5b813561280984826020860161275d565b91505092915050565b60008190508260206002028201111561282e5761282d612758565b5b92915050565b6000819050826040600202820111156128505761284f612758565b5b92915050565b60008190508260206022028201111561287257612871612758565b5b92915050565b60008060008060008060008060006105e08a8c03121561289b5761289a6125b0565b5b60008a013567ffffffffffffffff8111156128b9576128b86125b5565b5b6128c58c828d016126d2565b99505060208a013567ffffffffffffffff8111156128e6576128e56125b5565b5b6128f28c828d016126d2565b98505060408a013567ffffffffffffffff811115612913576129126125b5565b5b61291f8c828d016126d2565b97505060606129308c828d01612717565b96505060808a013567ffffffffffffffff811115612951576129506125b5565b5b61295d8c828d016127e4565b95505060a061296e8c828d01612812565b94505060e061297f8c828d01612834565b9350506101606129918c828d01612812565b9250506101a06129a38c828d01612856565b9150509295985092959850929598565b6000602082840312156129c9576129c86125b0565b5b600082013567ffffffffffffffff8111156129e7576129e66125b5565b5b6129f3848285016126d2565b91505092915050565b600081519050919050565b600082825260208201905092915050565b6000819050602082019050919050565b600073ffffffffffffffffffffffffffffffffffffffff82169050919050565b6000612a5382612a28565b9050919050565b612a6381612a48565b82525050565b6000612a758383612a5a565b60208301905092915050565b6000602082019050919050565b6000612a99826129fc565b612aa38185612a07565b9350612aae83612a18565b8060005b83811015612adf578151612ac68882612a69565b9750612ad183612a81565b925050600181019050612ab2565b5085935050505092915050565b60006020820190508181036000830152612b068184612a8e565b905092915050565b612b1781612a48565b8114612b2257600080fd5b50565b600081359050612b3481612b0e565b92915050565b600060208284031215612b5057612b4f6125b0565b5b6000612b5e84828501612b25565b91505092915050565b612b7081612a48565b82525050565b600081519050919050565b600082825260208201905092915050565b60005b83811015612bb0578082015181840152602081019050612b95565b60008484015250505050565b6000612bc782612b76565b612bd18185612b81565b9350612be1818560208601612b92565b612bea816125c4565b840191505092915050565b6000606082019050612c0a6000830186612b67565b8181036020830152612c1c8185612bbc565b90508181036040830152612c308184612bbc565b9050949350505050565b6000602082019050612c4f6000830184612b67565b92915050565b600060208284031215612c6b57612c6a6125b0565b5b6000612c7984828501612717565b91505092915050565b600081519050919050565b600082825260208201905092915050565b6000819050602082019050919050565b612cb781612572565b82525050565b600082825260208201905092915050565b6000612cd982612b76565b612ce38185612cbd565b9350612cf3818560208601612b92565b612cfc816125c4565b840191505092915050565b6000606083016000830151612d1f6000860182612a5a565b506020830151612d326020860182612cae565b5060408301518482036040860152612d4a8282612cce565b9150508091505092915050565b6000612d638383612d07565b905092915050565b6000602082019050919050565b6000612d8382612c82565b612d8d8185612c8d565b935083602082028501612d9f85612c9e565b8060005b85811015612ddb5784840389528151612dbc8582612d57565b9450612dc783612d6b565b925060208a01995050600181019050612da3565b50829750879550505050505092915050565b60006020820190508181036000830152612e078184612d78565b905092915050565b600060a082019050612e246000830188612b67565b8181036020830152612e368187612bbc565b90508181036040830152612e4a8186612bbc565b90508181036060830152612e5e8185612bbc565b9050612e6d608083018461257c565b9695505050505050565b600081519050919050565b600082825260208201905092915050565b6000819050602082019050919050565b600081519050919050565b600082825260208201905092915050565b6000819050602082019050919050565b6000612edb8383612cce565b905092915050565b6000602082019050919050565b6000612efb82612ea3565b612f058185612eae565b935083602082028501612f1785612ebf565b8060005b85811015612f535784840389528151612f348582612ecf565b9450612f3f83612ee3565b925060208a01995050600181019050612f1b565b50829750879550505050505092915050565b600060c083016000830151612f7d6000860182612a5a565b5060208301518482036020860152612f958282612cce565b91505060408301518482036040860152612faf8282612cce565b91505060608301518482036060860152612fc98282612cce565b9150506080830151612fde6080860182612cae565b5060a083015184820360a0860152612ff68282612ef0565b9150508091505092915050565b600061300f8383612f65565b905092915050565b6000602082019050919050565b600061302f82612e77565b6130398185612e82565b93508360208202850161304b85612e93565b8060005b8581101561308757848403895281516130688582613003565b945061307383613017565b925060208a0199505060018101905061304f565b50829750879550505050505092915050565b600060208201905081810360008301526130b38184613024565b905092915050565b60006060820190506130d06000830186612b67565b6130dd602083018561257c565b81810360408301526130ef8184612bbc565b9050949350505050565b600080604083850312156131105761310f6125b0565b5b600061311e85828601612717565b925050602083013567ffffffffffffffff81111561313f5761313e6125b5565b5b61314b858286016126d2565b9150509250929050565b600082825260208201905092915050565b600061317182612ea3565b61317b8185613155565b93508360208202850161318d85612ebf565b8060005b858110156131c957848403895281516131aa8582612ecf565b94506131b583612ee3565b925060208a01995050600181019050613191565b50829750879550505050505092915050565b600060208201905081810360008301526131f58184613166565b905092915050565b600060408201905081810360008301526132178185612bbc565b90506132266020830184612b67565b9392505050565b6000806000806105408587031215613248576132476125b0565b5b600061325687828801612812565b945050604061326787828801612834565b93505060c061327887828801612812565b92505061010061328a87828801612856565b91505092959194509250565b60008115159050919050565b6132ab81613296565b82525050565b60006020820190506132c660008301846132a2565b92915050565b600080604083850312156132e3576132e26125b0565b5b60006132f185828601612b25565b925050602061330285828601612717565b9150509250929050565b600060208201905081810360008301526133268184612bbc565b905092915050565b60008060408385031215613345576133446125b0565b5b600083013567ffffffffffffffff811115613363576133626125b5565b5b61336f858286016126d2565b925050602061338085828601612717565b9150509250929050565b600080604083850312156133a1576133a06125b0565b5b600083013567ffffffffffffffff8111156133bf576133be6125b5565b5b6133cb858286016126d2565b925050602083013567ffffffffffffffff8111156133ec576133eb6125b5565b5b6133f8858286016126d2565b9150509250929050565b7f596f7572206964656e646974792070726f6f66206973206e6f742076616c6964600082015250565b6000613438602083612b81565b915061344382613402565b602082019050919050565b600060208201905081810360008301526134678161342b565b9050919050565b7f4e487b7100000000000000000000000000000000000000000000000000000000600052601160045260246000fd5b60006134a882612572565b91507fffffffffffffffffffffffffffffffffffffffffffffffffffffffffffffffff82036134da576134d961346e565b5b600182019050919050565b7f4e487b7100000000000000000000000000000000000000000000000000000000600052602260045260246000fd5b6000600282049050600182168061352c57607f821691505b60208210810361353f5761353e6134e5565b5b50919050565b60008190508160005260206000209050919050565b60006020601f8301049050919050565b600082821b905092915050565b6000600883026135a77fffffffffffffffffffffffffffffffffffffffffffffffffffffffffffffffff8261356a565b6135b1868361356a565b95508019841693508086168417925050509392505050565b6000819050919050565b60006135ee6135e96135e484612572565b6135c9565b612572565b9050919050565b6000819050919050565b613608836135d3565b61361c613614826135f5565b848454613577565b825550505050565b600090565b613631613624565b61363c8184846135ff565b505050565b5b8181101561366057613655600082613629565b600181019050613642565b5050565b601f8211156136a55761367681613545565b61367f8461355a565b8101602085101561368e578190505b6136a261369a8561355a565b830182613641565b50505b505050565b600082821c905092915050565b60006136c8600019846008026136aa565b1980831691505092915050565b60006136e183836136b7565b9150826002028217905092915050565b6136fa82612b76565b67ffffffffffffffff811115613713576137126125d5565b5b61371d8254613514565b613728828285613664565b600060209050601f83116001811461375b5760008415613749578287015190505b61375385826136d5565b8655506137bb565b601f19841661376986613545565b60005b828110156137915784890151825560018201915060208501945060208101905061376c565b868310156137ae57848901516137aa601f8916826136b7565b8355505b6001600288020188555050505b505050505050565b7f4e487b7100000000000000000000000000000000000000000000000000000000600052603260045260246000fd5b600081905092915050565b600061380882612b76565b61381281856137f2565b9350613822818560208601612b92565b80840191505092915050565b600061383a82846137fd565b915081905092915050565b60008154905061385481613514565b9050919050565b818103613869575050613941565b61387282613845565b67ffffffffffffffff81111561388b5761388a6125d5565b5b6138958254613514565b6138a0828285613664565b6000601f8311600181146138cf57600084156138bd578287015490505b6138c785826136d5565b86555061393a565b601f1984166138dd87613545565b96506138e886613545565b60005b82811015613910578489015482556001820191506001850194506020810190506138eb565b8683101561392d5784890154613929601f8916826136b7565b8355505b6001600288020188555050505b5050505050505b565b7f3000000000000000000000000000000000000000000000000000000000000000600082015250565b60006139796001836137f2565b915061398482613943565b600182019050919050565b7f2b00000000000000000000000000000000000000000000000000000000000000600082015250565b60006139c56001836137f2565b91506139d08261398f565b600182019050919050565b7f3100000000000000000000000000000000000000000000000000000000000000600082015250565b6000613a116001836137f2565b9150613a1c826139db565b600182019050919050565b7f4e6577204a6f62203a2000000000000000000000000000000000000000000000600082015250565b6000613a5d600a836137f2565b9150613a6882613a27565b600a82019050919050565b7f6e6577206a6f622c000000000000000000000000000000000000000000000000600082015250565b6000613aa96008836137f2565b9150613ab482613a73565b600882019050919050565b7f2061742000000000000000000000000000000000000000000000000000000000600082015250565b6000613af56004836137f2565b9150613b0082613abf565b600482019050919050565b7f2440000000000000000000000000000000000000000000000000000000000000600082015250565b6000613b416002836137f2565b9150613b4c82613b0b565b600282019050919050565b6000819050919050565b613b72613b6d82612572565b613b57565b82525050565b6000613b838261396c565b9150613b8e826139b8565b9150613b9982613a04565b9150613ba4826139b8565b9150613baf82613a50565b9150613bbb82876137fd565b9150613bc6826139b8565b9150613bd182613a9c565b9150613bdd82866137fd565b9150613be882613ae8565b9150613bf482856137fd565b9150613bff82613b34565b9150613c0b8284613b61565b60208201915081905095945050505050565b600081519050919050565b600082825260208201905092915050565b6000613c4482613c1d565b613c4e8185613c28565b9350613c5e818560208601612b92565b613c67816125c4565b840191505092915050565b6000606082019050613c876000830186612b67565b613c946020830185612b67565b8181036040830152613ca68184613c39565b9050949350505050565b6000604082019050613cc5600083018561257c565b8181036020830152613cd78184612bbc565b90509392505050565b7f496e76616c6964206a6f62204944000000000000000000000000000000000000600082015250565b6000613d16600e83612b81565b9150613d2182613ce0565b602082019050919050565b60006020820190508181036000830152613d4581613d09565b9050919050565b7f4f6e6c792074686520656d706c6f7965722063616e2076696577206170706c6960008201527f636174696f6e7320666f722074686973206a6f62000000000000000000000000602082015250565b6000613da8603483612b81565b9150613db382613d4c565b604082019050919050565b60006020820190508181036000830152613dd781613d9b565b9050919050565b7f557365726e616d652063616e6e6f7420626520656d7074790000000000000000600082015250565b6000613e14601883612b81565b9150613e1f82613dde565b602082019050919050565b60006020820190508181036000830152613e4381613e07565b9050919050565b7f5573657220616c72656164792065786973747300000000000000000000000000600082015250565b6000613e80601383612b81565b9150613e8b82613e4a565b602082019050919050565b60006020820190508181036000830152613eaf81613e73565b9050919050565b6000613ec182612572565b9150613ecc83612572565b9250828203905081811115613ee457613ee361346e565b5b92915050565b82818337505050565b613eff60408383613eea565b5050565b600060029050919050565b600081905092915050565b6000819050919050565b613f2f60408383613eea565b5050565b6000613f3f8383613f23565b60408301905092915050565b600082905092915050565b6000604082019050919050565b613f6c81613f03565b613f768184613f0e565b9250613f8182613f19565b8060005b83811015613fba57613f978284613f4b565b613fa18782613f33565b9650613fac83613f56565b925050600181019050613f85565b505050505050565b613fcf6104408383613eea565b5050565b600061054082019050613fe96000830187613ef3565b613ff66040830186613f63565b61400360c0830185613ef3565b614011610100830184613fc2565b95945050505050565b61402381613296565b811461402e57600080fd5b50565b6000815190506140408161401a565b92915050565b60006020828403121561405c5761405b6125b0565b5b600061406a84828501614031565b91505092915050565b7f54616720646f6573206e6f742065786973740000000000000000000000000000600082015250565b60006140a9601283612b81565b91506140b482614073565b602082019050919050565b600060208201905081810360008301526140d88161409c565b9050919050565b600081546140ec81613514565b6140f681866137f2565b94506001821660008114614111576001811461412657614159565b60ff1983168652811515820286019350614159565b61412f85613545565b60005b8381101561415157815481890152600182019150602081019050614132565b838801955050505b50505092915050565b600061416e82846140df565b915081905092915050565b7f416c7265616479207375627363726962656420746f2074686973207461670000600082015250565b60006141af601e83612b81565b91506141ba82614179565b602082019050919050565b600060208201905081810360008301526141de816141a2565b905091905056fea26469706673582212207103e7d41181a3834dd5d216cd8df6458196f45b7e9bad5103a210fdab3ea95c64736f6c63430008130033",
  "linkReferences": {},
  "deployedLinkReferences": {}
}