{
  "_format": "hh-sol-artifact-1",
  "contractName": "LGBTQJobMarket",
  "sourceName": "contracts/jobs.sol",
  "abi": [
    {
      "anonymous": false,
      "inputs": [
        {
          "indexed": false,
          "internalType": "uint256",
          "name": "applicationId",
          "type": "uint256"
        },
        {
          "indexed": true,
          "internalType": "address",
          "name": "applicant",
          "type": "address"
        },
        {
          "indexed": true,
          "internalType": "uint256",
          "name": "jobId",
          "type": "uint256"
        }
      ],
      "name": "JobApplied",
      "type": "event"
    },
    {
      "anonymous": false,
      "inputs": [
        {
          "indexed": false,
          "internalType": "uint256",
          "name": "jobId",
          "type": "uint256"
        },
        {
          "indexed": true,
          "internalType": "address",
          "name": "employer",
          "type": "address"
        },
        {
          "indexed": false,
          "internalType": "string",
          "name": "jobTitle",
          "type": "string"
        }
      ],
      "name": "JobPosted",
      "type": "event"
    },
    {
      "inputs": [
        {
          "internalType": "uint256",
          "name": "_jobId",
          "type": "uint256"
        },
        {
          "internalType": "string",
          "name": "_resumeHash",
          "type": "string"
        }
      ],
      "name": "applyForJob",
      "outputs": [],
      "stateMutability": "nonpayable",
      "type": "function"
    },
    {
      "inputs": [
        {
          "internalType": "uint256",
          "name": "_jobId",
          "type": "uint256"
        }
      ],
      "name": "getApplicationsForJob",
      "outputs": [
        {
          "components": [
            {
              "internalType": "address",
              "name": "applicant",
              "type": "address"
            },
            {
              "internalType": "uint256",
              "name": "jobId",
              "type": "uint256"
            },
            {
              "internalType": "string",
              "name": "resumeHash",
              "type": "string"
            }
          ],
          "internalType": "struct LGBTQJobMarket.JobApplication[]",
          "name": "",
          "type": "tuple[]"
        }
      ],
      "stateMutability": "view",
      "type": "function"
    },
    {
      "inputs": [],
      "name": "getJobs",
      "outputs": [
        {
          "components": [
            {
              "internalType": "address",
              "name": "employer",
              "type": "address"
            },
            {
              "internalType": "string",
              "name": "jobTitle",
              "type": "string"
            },
            {
              "internalType": "string",
              "name": "jobDescription",
              "type": "string"
            },
            {
              "internalType": "string",
              "name": "companyName",
              "type": "string"
            },
            {
              "internalType": "uint256",
              "name": "salary",
              "type": "uint256"
            },
            {
              "internalType": "string[]",
              "name": "tags",
              "type": "string[]"
            }
          ],
          "internalType": "struct LGBTQJobMarket.JobPosting[]",
          "name": "",
          "type": "tuple[]"
        }
      ],
      "stateMutability": "view",
      "type": "function"
    },
    {
      "inputs": [],
      "name": "jobApplicationCount",
      "outputs": [
        {
          "internalType": "uint256",
          "name": "",
          "type": "uint256"
        }
      ],
      "stateMutability": "view",
      "type": "function"
    },
    {
      "inputs": [
        {
          "internalType": "uint256",
          "name": "",
          "type": "uint256"
        }
      ],
      "name": "jobApplications",
      "outputs": [
        {
          "internalType": "address",
          "name": "applicant",
          "type": "address"
        },
        {
          "internalType": "uint256",
          "name": "jobId",
          "type": "uint256"
        },
        {
          "internalType": "string",
          "name": "resumeHash",
          "type": "string"
        }
      ],
      "stateMutability": "view",
      "type": "function"
    },
    {
      "inputs": [],
      "name": "jobPostingCount",
      "outputs": [
        {
          "internalType": "uint256",
          "name": "",
          "type": "uint256"
        }
      ],
      "stateMutability": "view",
      "type": "function"
    },
    {
      "inputs": [
        {
          "internalType": "uint256",
          "name": "",
          "type": "uint256"
        }
      ],
      "name": "jobPostings",
      "outputs": [
        {
          "internalType": "address",
          "name": "employer",
          "type": "address"
        },
        {
          "internalType": "string",
          "name": "jobTitle",
          "type": "string"
        },
        {
          "internalType": "string",
          "name": "jobDescription",
          "type": "string"
        },
        {
          "internalType": "string",
          "name": "companyName",
          "type": "string"
        },
        {
          "internalType": "uint256",
          "name": "salary",
          "type": "uint256"
        }
      ],
      "stateMutability": "view",
      "type": "function"
    },
    {
      "inputs": [
        {
          "internalType": "string",
          "name": "",
          "type": "string"
        }
      ],
      "name": "jobsByTag",
      "outputs": [
        {
          "internalType": "address",
          "name": "employer",
          "type": "address"
        },
        {
          "internalType": "string",
          "name": "jobTitle",
          "type": "string"
        },
        {
          "internalType": "string",
          "name": "jobDescription",
          "type": "string"
        },
        {
          "internalType": "string",
          "name": "companyName",
          "type": "string"
        },
        {
          "internalType": "uint256",
          "name": "salary",
          "type": "uint256"
        }
      ],
      "stateMutability": "view",
      "type": "function"
    },
    {
      "inputs": [
        {
          "internalType": "string",
          "name": "_jobTitle",
          "type": "string"
        },
        {
          "internalType": "string",
          "name": "_jobDescription",
          "type": "string"
        },
        {
          "internalType": "string",
          "name": "_companyName",
          "type": "string"
        },
        {
          "internalType": "uint256",
          "name": "_salary",
          "type": "uint256"
        },
        {
          "internalType": "string[]",
          "name": "_tags",
          "type": "string[]"
        }
      ],
      "name": "postJob",
      "outputs": [],
      "stateMutability": "nonpayable",
      "type": "function"
    }
  ],
  "bytecode": "0x608060405234801561001057600080fd5b50612393806100206000396000f3fe608060405234801561001057600080fd5b50600436106100935760003560e01c80636c09a5e3116100665780636c09a5e31461014c5780638bd56880146101685780638bdb5355146101865780638e304559146101a4578063b8e002a5146101d857610093565b80634d91e57d14610098578063622359b9146100c857806368581ebd146100fc578063699687cf1461011a575b600080fd5b6100b260048036038101906100ad91906113cd565b6101f4565b6040516100bf91906115ec565b60405180910390f35b6100e260048036038101906100dd91906113cd565b61051d565b6040516100f3959493929190611676565b60405180910390f35b61010461070b565b6040516101119190611900565b60405180910390f35b610134600480360381019061012f91906113cd565b610ac8565b60405161014393929190611922565b60405180910390f35b61016660048036038101906101619190611a95565b610b9a565b005b610170610d08565b60405161017d9190611af1565b60405180910390f35b61018e610d0e565b60405161019b9190611af1565b60405180910390f35b6101be60048036038101906101b99190611b0c565b610d14565b6040516101cf959493929190611676565b60405180910390f35b6101f260048036038101906101ed9190611c3b565b610f18565b005b606060008211801561020857506003548211155b610247576040517f08c379a000000000000000000000000000000000000000000000000000000000815260040161023e90611d72565b60405180910390fd5b60008083815260200190815260200160002060000160009054906101000a900473ffffffffffffffffffffffffffffffffffffffff1673ffffffffffffffffffffffffffffffffffffffff163373ffffffffffffffffffffffffffffffffffffffff16146102ea576040517f08c379a00000000000000000000000000000000000000000000000000000000081526004016102e190611e04565b60405180910390fd5b600080600190505b600454811161033a578360016000838152602001908152602001600020600101540361032757818061032390611e53565b9250505b808061033290611e53565b9150506102f2565b5060008167ffffffffffffffff8111156103575761035661196a565b5b60405190808252806020026020018201604052801561039057816020015b61037d6111c9565b8152602001906001900390816103755790505b509050600080600190505b600454811161051157856001600083815260200190815260200160002060010154036104fe57600160008281526020019081526020016000206040518060600160405290816000820160009054906101000a900473ffffffffffffffffffffffffffffffffffffffff1673ffffffffffffffffffffffffffffffffffffffff1673ffffffffffffffffffffffffffffffffffffffff1681526020016001820154815260200160028201805461044f90611eca565b80601f016020809104026020016040519081016040528092919081815260200182805461047b90611eca565b80156104c85780601f1061049d576101008083540402835291602001916104c8565b820191906000526020600020905b8154815290600101906020018083116104ab57829003601f168201915b5050505050815250508383815181106104e4576104e3611efb565b5b602002602001018190525081806104fa90611e53565b9250505b808061050990611e53565b91505061039b565b50819350505050919050565b60006020528060005260406000206000915090508060000160009054906101000a900473ffffffffffffffffffffffffffffffffffffffff169080600101805461056690611eca565b80601f016020809104026020016040519081016040528092919081815260200182805461059290611eca565b80156105df5780601f106105b4576101008083540402835291602001916105df565b820191906000526020600020905b8154815290600101906020018083116105c257829003601f168201915b5050505050908060020180546105f490611eca565b80601f016020809104026020016040519081016040528092919081815260200182805461062090611eca565b801561066d5780601f106106425761010080835404028352916020019161066d565b820191906000526020600020905b81548152906001019060200180831161065057829003601f168201915b50505050509080600301805461068290611eca565b80601f01602080910402602001604051908101604052809291908181526020018280546106ae90611eca565b80156106fb5780601f106106d0576101008083540402835291602001916106fb565b820191906000526020600020905b8154815290600101906020018083116106de57829003601f168201915b5050505050908060040154905085565b6060600060035467ffffffffffffffff81111561072b5761072a61196a565b5b60405190808252806020026020018201604052801561076457816020015b610751611200565b8152602001906001900390816107495790505b5090506000600190505b6003548111610ac0576000808281526020019081526020016000206040518060c00160405290816000820160009054906101000a900473ffffffffffffffffffffffffffffffffffffffff1673ffffffffffffffffffffffffffffffffffffffff1673ffffffffffffffffffffffffffffffffffffffff1681526020016001820180546107fa90611eca565b80601f016020809104026020016040519081016040528092919081815260200182805461082690611eca565b80156108735780601f1061084857610100808354040283529160200191610873565b820191906000526020600020905b81548152906001019060200180831161085657829003601f168201915b5050505050815260200160028201805461088c90611eca565b80601f01602080910402602001604051908101604052809291908181526020018280546108b890611eca565b80156109055780601f106108da57610100808354040283529160200191610905565b820191906000526020600020905b8154815290600101906020018083116108e857829003601f168201915b5050505050815260200160038201805461091e90611eca565b80601f016020809104026020016040519081016040528092919081815260200182805461094a90611eca565b80156109975780601f1061096c57610100808354040283529160200191610997565b820191906000526020600020905b81548152906001019060200180831161097a57829003601f168201915b505050505081526020016004820154815260200160058201805480602002602001604051908101604052809291908181526020016000905b82821015610a7b5783829060005260206000200180546109ee90611eca565b80601f0160208091040260200160405190810160405280929190818152602001828054610a1a90611eca565b8015610a675780601f10610a3c57610100808354040283529160200191610a67565b820191906000526020600020905b815481529060010190602001808311610a4a57829003601f168201915b5050505050815260200190600101906109cf565b505050508152505082600183610a919190611f2a565b81518110610aa257610aa1611efb565b5b60200260200101819052508080610ab890611e53565b91505061076e565b508091505090565b60016020528060005260406000206000915090508060000160009054906101000a900473ffffffffffffffffffffffffffffffffffffffff1690806001015490806002018054610b1790611eca565b80601f0160208091040260200160405190810160405280929190818152602001828054610b4390611eca565b8015610b905780601f10610b6557610100808354040283529160200191610b90565b820191906000526020600020905b815481529060010190602001808311610b7357829003601f168201915b5050505050905083565b600082118015610bac57506003548211155b610beb576040517f08c379a0000000000000000000000000000000000000000000000000000000008152600401610be290611d72565b60405180910390fd5b60046000815480929190610bfe90611e53565b919050555060405180606001604052803373ffffffffffffffffffffffffffffffffffffffff1681526020018381526020018281525060016000600454815260200190815260200160002060008201518160000160006101000a81548173ffffffffffffffffffffffffffffffffffffffff021916908373ffffffffffffffffffffffffffffffffffffffff160217905550602082015181600101556040820151816002019081610caf919061210a565b50905050813373ffffffffffffffffffffffffffffffffffffffff167f81bbe3bd8cd7aca942797e968d27abaa8f12cfb189d8d0e56b49453fb8590c73600454604051610cfc9190611af1565b60405180910390a35050565b60045481565b60035481565b6002818051602081018201805184825260208301602085012081835280955050505050506000915090508060000160009054906101000a900473ffffffffffffffffffffffffffffffffffffffff1690806001018054610d7390611eca565b80601f0160208091040260200160405190810160405280929190818152602001828054610d9f90611eca565b8015610dec5780601f10610dc157610100808354040283529160200191610dec565b820191906000526020600020905b815481529060010190602001808311610dcf57829003601f168201915b505050505090806002018054610e0190611eca565b80601f0160208091040260200160405190810160405280929190818152602001828054610e2d90611eca565b8015610e7a5780601f10610e4f57610100808354040283529160200191610e7a565b820191906000526020600020905b815481529060010190602001808311610e5d57829003601f168201915b505050505090806003018054610e8f90611eca565b80601f0160208091040260200160405190810160405280929190818152602001828054610ebb90611eca565b8015610f085780601f10610edd57610100808354040283529160200191610f08565b820191906000526020600020905b815481529060010190602001808311610eeb57829003601f168201915b5050505050908060040154905085565b60036000815480929190610f2b90611e53565b91905055506040518060c001604052803373ffffffffffffffffffffffffffffffffffffffff16815260200186815260200185815260200184815260200183815260200182815250600080600354815260200190815260200160002060008201518160000160006101000a81548173ffffffffffffffffffffffffffffffffffffffff021916908373ffffffffffffffffffffffffffffffffffffffff1602179055506020820151816001019081610fe3919061210a565b506040820151816002019081610ff9919061210a565b50606082015181600301908161100f919061210a565b506080820151816004015560a082015181600501908051906020019061103692919061124c565b5090505060005b815181101561116f576000806003548152602001908152602001600020600283838151811061106f5761106e611efb565b5b60200260200101516040516110849190612218565b90815260200160405180910390206000820160009054906101000a900473ffffffffffffffffffffffffffffffffffffffff168160000160006101000a81548173ffffffffffffffffffffffffffffffffffffffff021916908373ffffffffffffffffffffffffffffffffffffffff1602179055506001820181600101908161110d9190612245565b50600282018160020190816111229190612245565b50600382018160030190816111379190612245565b506004820154816004015560058201816005019080546111589291906112a5565b50905050808061116790611e53565b91505061103d565b503373ffffffffffffffffffffffffffffffffffffffff167f874d4755e4be9f976c7833fc413deb77c1acbf096d6535b71953c36eb838cf40600354876040516111ba92919061232d565b60405180910390a25050505050565b6040518060600160405280600073ffffffffffffffffffffffffffffffffffffffff16815260200160008152602001606081525090565b6040518060c00160405280600073ffffffffffffffffffffffffffffffffffffffff16815260200160608152602001606081526020016060815260200160008152602001606081525090565b828054828255906000526020600020908101928215611294579160200282015b82811115611293578251829081611283919061210a565b509160200191906001019061126c565b5b5090506112a19190611302565b5090565b8280548282559060005260206000209081019282156112f15760005260206000209182015b828111156112f057828290816112e09190612245565b50916001019190600101906112ca565b5b5090506112fe9190611302565b5090565b5b8082111561132257600081816113199190611326565b50600101611303565b5090565b50805461133290611eca565b6000825580601f106113445750611363565b601f0160209004906000526020600020908101906113629190611366565b5b50565b5b8082111561137f576000816000905550600101611367565b5090565b6000604051905090565b600080fd5b600080fd5b6000819050919050565b6113aa81611397565b81146113b557600080fd5b50565b6000813590506113c7816113a1565b92915050565b6000602082840312156113e3576113e261138d565b5b60006113f1848285016113b8565b91505092915050565b600081519050919050565b600082825260208201905092915050565b6000819050602082019050919050565b600073ffffffffffffffffffffffffffffffffffffffff82169050919050565b600061145182611426565b9050919050565b61146181611446565b82525050565b61147081611397565b82525050565b600081519050919050565b600082825260208201905092915050565b60005b838110156114b0578082015181840152602081019050611495565b60008484015250505050565b6000601f19601f8301169050919050565b60006114d882611476565b6114e28185611481565b93506114f2818560208601611492565b6114fb816114bc565b840191505092915050565b600060608301600083015161151e6000860182611458565b5060208301516115316020860182611467565b506040830151848203604086015261154982826114cd565b9150508091505092915050565b60006115628383611506565b905092915050565b6000602082019050919050565b6000611582826113fa565b61158c8185611405565b93508360208202850161159e85611416565b8060005b858110156115da57848403895281516115bb8582611556565b94506115c68361156a565b925060208a019950506001810190506115a2565b50829750879550505050505092915050565b600060208201905081810360008301526116068184611577565b905092915050565b61161781611446565b82525050565b600082825260208201905092915050565b600061163982611476565b611643818561161d565b9350611653818560208601611492565b61165c816114bc565b840191505092915050565b61167081611397565b82525050565b600060a08201905061168b600083018861160e565b818103602083015261169d818761162e565b905081810360408301526116b1818661162e565b905081810360608301526116c5818561162e565b90506116d46080830184611667565b9695505050505050565b600081519050919050565b600082825260208201905092915050565b6000819050602082019050919050565b600081519050919050565b600082825260208201905092915050565b6000819050602082019050919050565b600061174283836114cd565b905092915050565b6000602082019050919050565b60006117628261170a565b61176c8185611715565b93508360208202850161177e85611726565b8060005b858110156117ba578484038952815161179b8582611736565b94506117a68361174a565b925060208a01995050600181019050611782565b50829750879550505050505092915050565b600060c0830160008301516117e46000860182611458565b50602083015184820360208601526117fc82826114cd565b9150506040830151848203604086015261181682826114cd565b9150506060830151848203606086015261183082826114cd565b91505060808301516118456080860182611467565b5060a083015184820360a086015261185d8282611757565b9150508091505092915050565b600061187683836117cc565b905092915050565b6000602082019050919050565b6000611896826116de565b6118a081856116e9565b9350836020820285016118b2856116fa565b8060005b858110156118ee57848403895281516118cf858261186a565b94506118da8361187e565b925060208a019950506001810190506118b6565b50829750879550505050505092915050565b6000602082019050818103600083015261191a818461188b565b905092915050565b6000606082019050611937600083018661160e565b6119446020830185611667565b8181036040830152611956818461162e565b9050949350505050565b600080fd5b600080fd5b7f4e487b7100000000000000000000000000000000000000000000000000000000600052604160045260246000fd5b6119a2826114bc565b810181811067ffffffffffffffff821117156119c1576119c061196a565b5b80604052505050565b60006119d4611383565b90506119e08282611999565b919050565b600067ffffffffffffffff821115611a00576119ff61196a565b5b611a09826114bc565b9050602081019050919050565b82818337600083830152505050565b6000611a38611a33846119e5565b6119ca565b905082815260208101848484011115611a5457611a53611965565b5b611a5f848285611a16565b509392505050565b600082601f830112611a7c57611a7b611960565b5b8135611a8c848260208601611a25565b91505092915050565b60008060408385031215611aac57611aab61138d565b5b6000611aba858286016113b8565b925050602083013567ffffffffffffffff811115611adb57611ada611392565b5b611ae785828601611a67565b9150509250929050565b6000602082019050611b066000830184611667565b92915050565b600060208284031215611b2257611b2161138d565b5b600082013567ffffffffffffffff811115611b4057611b3f611392565b5b611b4c84828501611a67565b91505092915050565b600067ffffffffffffffff821115611b7057611b6f61196a565b5b602082029050602081019050919050565b600080fd5b6000611b99611b9484611b55565b6119ca565b90508083825260208201905060208402830185811115611bbc57611bbb611b81565b5b835b81811015611c0357803567ffffffffffffffff811115611be157611be0611960565b5b808601611bee8982611a67565b85526020850194505050602081019050611bbe565b5050509392505050565b600082601f830112611c2257611c21611960565b5b8135611c32848260208601611b86565b91505092915050565b600080600080600060a08688031215611c5757611c5661138d565b5b600086013567ffffffffffffffff811115611c7557611c74611392565b5b611c8188828901611a67565b955050602086013567ffffffffffffffff811115611ca257611ca1611392565b5b611cae88828901611a67565b945050604086013567ffffffffffffffff811115611ccf57611cce611392565b5b611cdb88828901611a67565b9350506060611cec888289016113b8565b925050608086013567ffffffffffffffff811115611d0d57611d0c611392565b5b611d1988828901611c0d565b9150509295509295909350565b7f496e76616c6964206a6f62204944000000000000000000000000000000000000600082015250565b6000611d5c600e8361161d565b9150611d6782611d26565b602082019050919050565b60006020820190508181036000830152611d8b81611d4f565b9050919050565b7f4f6e6c792074686520656d706c6f7965722063616e2076696577206170706c6960008201527f636174696f6e7320666f722074686973206a6f62000000000000000000000000602082015250565b6000611dee60348361161d565b9150611df982611d92565b604082019050919050565b60006020820190508181036000830152611e1d81611de1565b9050919050565b7f4e487b7100000000000000000000000000000000000000000000000000000000600052601160045260246000fd5b6000611e5e82611397565b91507fffffffffffffffffffffffffffffffffffffffffffffffffffffffffffffffff8203611e9057611e8f611e24565b5b600182019050919050565b7f4e487b7100000000000000000000000000000000000000000000000000000000600052602260045260246000fd5b60006002820490506001821680611ee257607f821691505b602082108103611ef557611ef4611e9b565b5b50919050565b7f4e487b7100000000000000000000000000000000000000000000000000000000600052603260045260246000fd5b6000611f3582611397565b9150611f4083611397565b9250828203905081811115611f5857611f57611e24565b5b92915050565b60008190508160005260206000209050919050565b60006020601f8301049050919050565b600082821b905092915050565b600060088302611fc07fffffffffffffffffffffffffffffffffffffffffffffffffffffffffffffffff82611f83565b611fca8683611f83565b95508019841693508086168417925050509392505050565b6000819050919050565b6000612007612002611ffd84611397565b611fe2565b611397565b9050919050565b6000819050919050565b61202183611fec565b61203561202d8261200e565b848454611f90565b825550505050565b600090565b61204a61203d565b612055818484612018565b505050565b5b818110156120795761206e600082612042565b60018101905061205b565b5050565b601f8211156120be5761208f81611f5e565b61209884611f73565b810160208510156120a7578190505b6120bb6120b385611f73565b83018261205a565b50505b505050565b600082821c905092915050565b60006120e1600019846008026120c3565b1980831691505092915050565b60006120fa83836120d0565b9150826002028217905092915050565b61211382611476565b67ffffffffffffffff81111561212c5761212b61196a565b5b6121368254611eca565b61214182828561207d565b600060209050601f8311600181146121745760008415612162578287015190505b61216c85826120ee565b8655506121d4565b601f19841661218286611f5e565b60005b828110156121aa57848901518255600182019150602085019450602081019050612185565b868310156121c757848901516121c3601f8916826120d0565b8355505b6001600288020188555050505b505050505050565b600081905092915050565b60006121f282611476565b6121fc81856121dc565b935061220c818560208601611492565b80840191505092915050565b600061222482846121e7565b915081905092915050565b60008154905061223e81611eca565b9050919050565b81810361225357505061232b565b61225c8261222f565b67ffffffffffffffff8111156122755761227461196a565b5b61227f8254611eca565b61228a82828561207d565b6000601f8311600181146122b957600084156122a7578287015490505b6122b185826120ee565b865550612324565b601f1984166122c787611f5e565b96506122d286611f5e565b60005b828110156122fa578489015482556001820191506001850194506020810190506122d5565b868310156123175784890154612313601f8916826120d0565b8355505b6001600288020188555050505b5050505050505b565b60006040820190506123426000830185611667565b8181036020830152612354818461162e565b9050939250505056fea2646970667358221220f3e56e0144965bbb84b4c0e28c13e50d8cdbf020badb6d434d89723d87a79c3364736f6c63430008130033",
  "linkReferences": {},
  "deployedLinkReferences": {}
}