{
  "_format": "hh-sol-artifact-1",
  "contractName": "LGBTQJobMarket",
  "sourceName": "contracts/jobs.sol",
  "abi": [
    {
      "anonymous": false,
      "inputs": [
        {
          "indexed": true,
          "internalType": "address",
          "name": "owner",
          "type": "address"
        },
        {
          "indexed": false,
          "internalType": "string",
          "name": "companyName",
          "type": "string"
        }
      ],
      "name": "CompanyCreated",
      "type": "event"
    },
    {
      "anonymous": false,
      "inputs": [
        {
          "indexed": false,
          "internalType": "uint256",
          "name": "applicationId",
          "type": "uint256"
        },
        {
          "indexed": true,
          "internalType": "address",
          "name": "applicant",
          "type": "address"
        },
        {
          "indexed": true,
          "internalType": "uint256",
          "name": "jobId",
          "type": "uint256"
        }
      ],
      "name": "JobApplied",
      "type": "event"
    },
    {
      "anonymous": false,
      "inputs": [
        {
          "indexed": false,
          "internalType": "uint256",
          "name": "jobId",
          "type": "uint256"
        },
        {
          "indexed": true,
          "internalType": "address",
          "name": "employer",
          "type": "address"
        },
        {
          "indexed": false,
          "internalType": "string",
          "name": "jobTitle",
          "type": "string"
        }
      ],
      "name": "JobPosted",
      "type": "event"
    },
    {
      "anonymous": false,
      "inputs": [
        {
          "indexed": true,
          "internalType": "address",
          "name": "user",
          "type": "address"
        },
        {
          "indexed": false,
          "internalType": "string",
          "name": "tag",
          "type": "string"
        }
      ],
      "name": "SubscriptionAdded",
      "type": "event"
    },
    {
      "anonymous": false,
      "inputs": [
        {
          "indexed": true,
          "internalType": "address",
          "name": "user",
          "type": "address"
        },
        {
          "indexed": false,
          "internalType": "string",
          "name": "username",
          "type": "string"
        }
      ],
      "name": "UserCreated",
      "type": "event"
    },
    {
      "inputs": [],
      "name": "EPNS_COMM_ADDRESS",
      "outputs": [
        {
          "internalType": "address",
          "name": "",
          "type": "address"
        }
      ],
      "stateMutability": "view",
      "type": "function"
    },
    {
      "inputs": [
        {
          "internalType": "uint256",
          "name": "_jobId",
          "type": "uint256"
        },
        {
          "internalType": "string",
          "name": "_resumeHash",
          "type": "string"
        }
      ],
      "name": "applyForJob",
      "outputs": [],
      "stateMutability": "nonpayable",
      "type": "function"
    },
    {
      "inputs": [
        {
          "internalType": "address",
          "name": "",
          "type": "address"
        }
      ],
      "name": "companies",
      "outputs": [
        {
          "internalType": "address",
          "name": "owner",
          "type": "address"
        },
        {
          "internalType": "string",
          "name": "companyName",
          "type": "string"
        },
        {
          "internalType": "string",
          "name": "companyDescription",
          "type": "string"
        }
      ],
      "stateMutability": "view",
      "type": "function"
    },
    {
      "inputs": [],
      "name": "companyCount",
      "outputs": [
        {
          "internalType": "uint256",
          "name": "",
          "type": "uint256"
        }
      ],
      "stateMutability": "view",
      "type": "function"
    },
    {
      "inputs": [
        {
          "internalType": "string",
          "name": "_companyName",
          "type": "string"
        },
        {
          "internalType": "string",
          "name": "_companyDescription",
          "type": "string"
        }
      ],
      "name": "createCompany",
      "outputs": [],
      "stateMutability": "nonpayable",
      "type": "function"
    },
    {
      "inputs": [
        {
          "internalType": "string",
          "name": "_username",
          "type": "string"
        }
      ],
      "name": "createUser",
      "outputs": [],
      "stateMutability": "nonpayable",
      "type": "function"
    },
    {
      "inputs": [
        {
          "internalType": "uint256",
          "name": "_jobId",
          "type": "uint256"
        }
      ],
      "name": "getApplicationsForJob",
      "outputs": [
        {
          "components": [
            {
              "internalType": "address",
              "name": "applicant",
              "type": "address"
            },
            {
              "internalType": "uint256",
              "name": "jobId",
              "type": "uint256"
            },
            {
              "internalType": "string",
              "name": "resumeHash",
              "type": "string"
            }
          ],
          "internalType": "struct LGBTQJobMarket.JobApplication[]",
          "name": "",
          "type": "tuple[]"
        }
      ],
      "stateMutability": "view",
      "type": "function"
    },
    {
      "inputs": [],
      "name": "getJobs",
      "outputs": [
        {
          "components": [
            {
              "internalType": "address",
              "name": "employer",
              "type": "address"
            },
            {
              "internalType": "string",
              "name": "jobTitle",
              "type": "string"
            },
            {
              "internalType": "string",
              "name": "jobDescription",
              "type": "string"
            },
            {
              "internalType": "string",
              "name": "companyName",
              "type": "string"
            },
            {
              "internalType": "uint256",
              "name": "salary",
              "type": "uint256"
            },
            {
              "internalType": "string[]",
              "name": "tags",
              "type": "string[]"
            }
          ],
          "internalType": "struct LGBTQJobMarket.JobPosting[]",
          "name": "",
          "type": "tuple[]"
        }
      ],
      "stateMutability": "view",
      "type": "function"
    },
    {
      "inputs": [
        {
          "internalType": "address",
          "name": "_user",
          "type": "address"
        }
      ],
      "name": "getTagsSubscribedByUser",
      "outputs": [
        {
          "internalType": "string[]",
          "name": "",
          "type": "string[]"
        }
      ],
      "stateMutability": "view",
      "type": "function"
    },
    {
      "inputs": [
        {
          "internalType": "string",
          "name": "_tag",
          "type": "string"
        }
      ],
      "name": "getUsersSubscribedToTag",
      "outputs": [
        {
          "internalType": "address[]",
          "name": "",
          "type": "address[]"
        }
      ],
      "stateMutability": "view",
      "type": "function"
    },
    {
      "inputs": [],
      "name": "jobApplicationCount",
      "outputs": [
        {
          "internalType": "uint256",
          "name": "",
          "type": "uint256"
        }
      ],
      "stateMutability": "view",
      "type": "function"
    },
    {
      "inputs": [
        {
          "internalType": "uint256",
          "name": "",
          "type": "uint256"
        }
      ],
      "name": "jobApplications",
      "outputs": [
        {
          "internalType": "address",
          "name": "applicant",
          "type": "address"
        },
        {
          "internalType": "uint256",
          "name": "jobId",
          "type": "uint256"
        },
        {
          "internalType": "string",
          "name": "resumeHash",
          "type": "string"
        }
      ],
      "stateMutability": "view",
      "type": "function"
    },
    {
      "inputs": [],
      "name": "jobPostingCount",
      "outputs": [
        {
          "internalType": "uint256",
          "name": "",
          "type": "uint256"
        }
      ],
      "stateMutability": "view",
      "type": "function"
    },
    {
      "inputs": [
        {
          "internalType": "uint256",
          "name": "",
          "type": "uint256"
        }
      ],
      "name": "jobPostings",
      "outputs": [
        {
          "internalType": "address",
          "name": "employer",
          "type": "address"
        },
        {
          "internalType": "string",
          "name": "jobTitle",
          "type": "string"
        },
        {
          "internalType": "string",
          "name": "jobDescription",
          "type": "string"
        },
        {
          "internalType": "string",
          "name": "companyName",
          "type": "string"
        },
        {
          "internalType": "uint256",
          "name": "salary",
          "type": "uint256"
        }
      ],
      "stateMutability": "view",
      "type": "function"
    },
    {
      "inputs": [
        {
          "internalType": "string",
          "name": "",
          "type": "string"
        }
      ],
      "name": "jobsByTag",
      "outputs": [
        {
          "internalType": "address",
          "name": "employer",
          "type": "address"
        },
        {
          "internalType": "string",
          "name": "jobTitle",
          "type": "string"
        },
        {
          "internalType": "string",
          "name": "jobDescription",
          "type": "string"
        },
        {
          "internalType": "string",
          "name": "companyName",
          "type": "string"
        },
        {
          "internalType": "uint256",
          "name": "salary",
          "type": "uint256"
        }
      ],
      "stateMutability": "view",
      "type": "function"
    },
    {
      "inputs": [
        {
          "internalType": "string",
          "name": "_jobTitle",
          "type": "string"
        },
        {
          "internalType": "string",
          "name": "_jobDescription",
          "type": "string"
        },
        {
          "internalType": "string",
          "name": "_companyName",
          "type": "string"
        },
        {
          "internalType": "uint256",
          "name": "_salary",
          "type": "uint256"
        },
        {
          "internalType": "string[]",
          "name": "_tags",
          "type": "string[]"
        }
      ],
      "name": "postJob",
      "outputs": [],
      "stateMutability": "nonpayable",
      "type": "function"
    },
    {
      "inputs": [
        {
          "internalType": "string",
          "name": "_tag",
          "type": "string"
        }
      ],
      "name": "subscribeToTag",
      "outputs": [],
      "stateMutability": "nonpayable",
      "type": "function"
    },
    {
      "inputs": [
        {
          "internalType": "string",
          "name": "",
          "type": "string"
        },
        {
          "internalType": "uint256",
          "name": "",
          "type": "uint256"
        }
      ],
      "name": "tagSubscibers",
      "outputs": [
        {
          "internalType": "address",
          "name": "",
          "type": "address"
        }
      ],
      "stateMutability": "view",
      "type": "function"
    },
    {
      "inputs": [],
      "name": "userCount",
      "outputs": [
        {
          "internalType": "uint256",
          "name": "",
          "type": "uint256"
        }
      ],
      "stateMutability": "view",
      "type": "function"
    },
    {
      "inputs": [
        {
          "internalType": "address",
          "name": "",
          "type": "address"
        },
        {
          "internalType": "uint256",
          "name": "",
          "type": "uint256"
        }
      ],
      "name": "userSubscriptions",
      "outputs": [
        {
          "internalType": "string",
          "name": "",
          "type": "string"
        }
      ],
      "stateMutability": "view",
      "type": "function"
    },
    {
      "inputs": [
        {
          "internalType": "address",
          "name": "",
          "type": "address"
        }
      ],
      "name": "users",
      "outputs": [
        {
          "internalType": "string",
          "name": "username",
          "type": "string"
        },
        {
          "internalType": "address",
          "name": "userAddress",
          "type": "address"
        }
      ],
      "stateMutability": "view",
      "type": "function"
    }
  ],
  "bytecode": "0x6080604052730c34d54a09cfe75bccd878a469206ae77e0fe6e76000806101000a81548173ffffffffffffffffffffffffffffffffffffffff021916908373ffffffffffffffffffffffffffffffffffffffff16021790555034801561006457600080fd5b50613d15806100746000396000f3fe608060405234801561001057600080fd5b50600436106101375760003560e01c80638bd56880116100b8578063a87430ba1161007c578063a87430ba14610384578063b8e002a5146103b5578063c95d6edc146103d1578063e7898f1814610401578063f14513f214610431578063f54c93e91461044d57610137565b80638bd56880146102c65780638bdb5355146102e45780638e304559146103025780638e75dd4714610336578063967c00601461035457610137565b8063507ffba5116100ff578063507ffba51461020a578063622359b91461022657806368581ebd1461025a578063699687cf146102785780636c09a5e3146102aa57610137565b806307973ccf1461013c5780633532bab41461015a578063355e6ce81461018a57806348a3b4a4146101bc5780634d91e57d146101da575b600080fd5b610144610469565b6040516101519190612458565b60405180910390f35b610174600480360381019061016f91906125cd565b61046f565b6040516101819190612706565b60405180910390f35b6101a4600480360381019061019f9190612754565b6105d0565b6040516101b39392919061280f565b60405180910390f35b6101c461072a565b6040516101d19190612854565b60405180910390f35b6101f460048036038101906101ef919061289b565b61074e565b6040516102019190612a33565b60405180910390f35b610224600480360381019061021f91906125cd565b610a78565b005b610240600480360381019061023b919061289b565b610cc0565b604051610251959493929190612a55565b60405180910390f35b610262610eae565b60405161026f9190612cdf565b60405180910390f35b610292600480360381019061028d919061289b565b61126c565b6040516102a193929190612d01565b60405180910390f35b6102c460048036038101906102bf9190612d3f565b61133e565b005b6102ce6114ac565b6040516102db9190612458565b60405180910390f35b6102ec6114b2565b6040516102f99190612458565b60405180910390f35b61031c600480360381019061031791906125cd565b6114b8565b60405161032d959493929190612a55565b60405180910390f35b61033e6116bc565b60405161034b9190612458565b60405180910390f35b61036e60048036038101906103699190612754565b6116c2565b60405161037b9190612e21565b60405180910390f35b61039e60048036038101906103999190612754565b6118c4565b6040516103ac929190612e43565b60405180910390f35b6103cf60048036038101906103ca9190612f59565b611990565b005b6103eb60048036038101906103e69190613044565b611d1d565b6040516103f89190613084565b60405180910390f35b61041b600480360381019061041691906130a6565b611dd6565b6040516104289190612854565b60405180910390f35b61044b60048036038101906104469190613102565b611e3a565b005b610467600480360381019061046291906125cd565b611f8a565b005b60085481565b6060600060048360405161048391906131b6565b90815260200160405180910390208054905067ffffffffffffffff8111156104ae576104ad6124a2565b5b6040519080825280602002602001820160405280156104dc5781602001602082028036833780820191505090505b50905060005b6004846040516104f291906131b6565b9081526020016040518091039020805490508110156105c65760048460405161051b91906131b6565b9081526020016040518091039020818154811061053b5761053a6131cd565b5b9060005260206000200160009054906101000a900473ffffffffffffffffffffffffffffffffffffffff16828281518110610579576105786131cd565b5b602002602001019073ffffffffffffffffffffffffffffffffffffffff16908173ffffffffffffffffffffffffffffffffffffffff168152505080806105be9061322b565b9150506104e2565b5080915050919050565b60076020528060005260406000206000915090508060000160009054906101000a900473ffffffffffffffffffffffffffffffffffffffff1690806001018054610619906132a2565b80601f0160208091040260200160405190810160405280929190818152602001828054610645906132a2565b80156106925780601f1061066757610100808354040283529160200191610692565b820191906000526020600020905b81548152906001019060200180831161067557829003601f168201915b5050505050908060020180546106a7906132a2565b80601f01602080910402602001604051908101604052809291908181526020018280546106d3906132a2565b80156107205780601f106106f557610100808354040283529160200191610720565b820191906000526020600020905b81548152906001019060200180831161070357829003601f168201915b5050505050905083565b60008054906101000a900473ffffffffffffffffffffffffffffffffffffffff1681565b606060008211801561076257506009548211155b6107a1576040517f08c379a00000000000000000000000000000000000000000000000000000000081526004016107989061331f565b60405180910390fd5b6001600083815260200190815260200160002060000160009054906101000a900473ffffffffffffffffffffffffffffffffffffffff1673ffffffffffffffffffffffffffffffffffffffff163373ffffffffffffffffffffffffffffffffffffffff1614610845576040517f08c379a000000000000000000000000000000000000000000000000000000000815260040161083c906133b1565b60405180910390fd5b600080600190505b600a548111610895578360026000838152602001908152602001600020600101540361088257818061087e9061322b565b9250505b808061088d9061322b565b91505061084d565b5060008167ffffffffffffffff8111156108b2576108b16124a2565b5b6040519080825280602002602001820160405280156108eb57816020015b6108d8612285565b8152602001906001900390816108d05790505b509050600080600190505b600a548111610a6c5785600260008381526020019081526020016000206001015403610a5957600260008281526020019081526020016000206040518060600160405290816000820160009054906101000a900473ffffffffffffffffffffffffffffffffffffffff1673ffffffffffffffffffffffffffffffffffffffff1673ffffffffffffffffffffffffffffffffffffffff168152602001600182015481526020016002820180546109aa906132a2565b80601f01602080910402602001604051908101604052809291908181526020018280546109d6906132a2565b8015610a235780601f106109f857610100808354040283529160200191610a23565b820191906000526020600020905b815481529060010190602001808311610a0657829003601f168201915b505050505081525050838381518110610a3f57610a3e6131cd565b5b60200260200101819052508180610a559061322b565b9250505b8080610a649061322b565b9150506108f6565b50819350505050919050565b6000815111610abc576040517f08c379a0000000000000000000000000000000000000000000000000000000008152600401610ab39061341d565b60405180910390fd5b600073ffffffffffffffffffffffffffffffffffffffff16600660003373ffffffffffffffffffffffffffffffffffffffff1673ffffffffffffffffffffffffffffffffffffffff16815260200190815260200160002060010160009054906101000a900473ffffffffffffffffffffffffffffffffffffffff1673ffffffffffffffffffffffffffffffffffffffff1614610b8d576040517f08c379a0000000000000000000000000000000000000000000000000000000008152600401610b8490613489565b60405180910390fd5b60086000815480929190610ba09061322b565b919050555060405180604001604052808281526020013373ffffffffffffffffffffffffffffffffffffffff16815250600660003373ffffffffffffffffffffffffffffffffffffffff1673ffffffffffffffffffffffffffffffffffffffff1681526020019081526020016000206000820151816000019081610c249190613655565b5060208201518160010160006101000a81548173ffffffffffffffffffffffffffffffffffffffff021916908373ffffffffffffffffffffffffffffffffffffffff1602179055509050503373ffffffffffffffffffffffffffffffffffffffff167f9954bce02f72fbdef0fa668ac6f42e434b5829615dac2fb22448054d2359d4f682604051610cb59190613084565b60405180910390a250565b60016020528060005260406000206000915090508060000160009054906101000a900473ffffffffffffffffffffffffffffffffffffffff1690806001018054610d09906132a2565b80601f0160208091040260200160405190810160405280929190818152602001828054610d35906132a2565b8015610d825780601f10610d5757610100808354040283529160200191610d82565b820191906000526020600020905b815481529060010190602001808311610d6557829003601f168201915b505050505090806002018054610d97906132a2565b80601f0160208091040260200160405190810160405280929190818152602001828054610dc3906132a2565b8015610e105780601f10610de557610100808354040283529160200191610e10565b820191906000526020600020905b815481529060010190602001808311610df357829003601f168201915b505050505090806003018054610e25906132a2565b80601f0160208091040260200160405190810160405280929190818152602001828054610e51906132a2565b8015610e9e5780601f10610e7357610100808354040283529160200191610e9e565b820191906000526020600020905b815481529060010190602001808311610e8157829003601f168201915b5050505050908060040154905085565b6060600060095467ffffffffffffffff811115610ece57610ecd6124a2565b5b604051908082528060200260200182016040528015610f0757816020015b610ef46122bc565b815260200190600190039081610eec5790505b5090506000600190505b600954811161126457600160008281526020019081526020016000206040518060c00160405290816000820160009054906101000a900473ffffffffffffffffffffffffffffffffffffffff1673ffffffffffffffffffffffffffffffffffffffff1673ffffffffffffffffffffffffffffffffffffffff168152602001600182018054610f9e906132a2565b80601f0160208091040260200160405190810160405280929190818152602001828054610fca906132a2565b80156110175780601f10610fec57610100808354040283529160200191611017565b820191906000526020600020905b815481529060010190602001808311610ffa57829003601f168201915b50505050508152602001600282018054611030906132a2565b80601f016020809104026020016040519081016040528092919081815260200182805461105c906132a2565b80156110a95780601f1061107e576101008083540402835291602001916110a9565b820191906000526020600020905b81548152906001019060200180831161108c57829003601f168201915b505050505081526020016003820180546110c2906132a2565b80601f01602080910402602001604051908101604052809291908181526020018280546110ee906132a2565b801561113b5780601f106111105761010080835404028352916020019161113b565b820191906000526020600020905b81548152906001019060200180831161111e57829003601f168201915b505050505081526020016004820154815260200160058201805480602002602001604051908101604052809291908181526020016000905b8282101561121f578382906000526020600020018054611192906132a2565b80601f01602080910402602001604051908101604052809291908181526020018280546111be906132a2565b801561120b5780601f106111e05761010080835404028352916020019161120b565b820191906000526020600020905b8154815290600101906020018083116111ee57829003601f168201915b505050505081526020019060010190611173565b5050505081525050826001836112359190613727565b81518110611246576112456131cd565b5b6020026020010181905250808061125c9061322b565b915050610f11565b508091505090565b60026020528060005260406000206000915090508060000160009054906101000a900473ffffffffffffffffffffffffffffffffffffffff16908060010154908060020180546112bb906132a2565b80601f01602080910402602001604051908101604052809291908181526020018280546112e7906132a2565b80156113345780601f1061130957610100808354040283529160200191611334565b820191906000526020600020905b81548152906001019060200180831161131757829003601f168201915b5050505050905083565b60008211801561135057506009548211155b61138f576040517f08c379a00000000000000000000000000000000000000000000000000000000081526004016113869061331f565b60405180910390fd5b600a60008154809291906113a29061322b565b919050555060405180606001604052803373ffffffffffffffffffffffffffffffffffffffff1681526020018381526020018281525060026000600a54815260200190815260200160002060008201518160000160006101000a81548173ffffffffffffffffffffffffffffffffffffffff021916908373ffffffffffffffffffffffffffffffffffffffff1602179055506020820151816001015560408201518160020190816114539190613655565b50905050813373ffffffffffffffffffffffffffffffffffffffff167f81bbe3bd8cd7aca942797e968d27abaa8f12cfb189d8d0e56b49453fb8590c73600a546040516114a09190612458565b60405180910390a35050565b600a5481565b60095481565b6003818051602081018201805184825260208301602085012081835280955050505050506000915090508060000160009054906101000a900473ffffffffffffffffffffffffffffffffffffffff1690806001018054611517906132a2565b80601f0160208091040260200160405190810160405280929190818152602001828054611543906132a2565b80156115905780601f1061156557610100808354040283529160200191611590565b820191906000526020600020905b81548152906001019060200180831161157357829003601f168201915b5050505050908060020180546115a5906132a2565b80601f01602080910402602001604051908101604052809291908181526020018280546115d1906132a2565b801561161e5780601f106115f35761010080835404028352916020019161161e565b820191906000526020600020905b81548152906001019060200180831161160157829003601f168201915b505050505090806003018054611633906132a2565b80601f016020809104026020016040519081016040528092919081815260200182805461165f906132a2565b80156116ac5780601f10611681576101008083540402835291602001916116ac565b820191906000526020600020905b81548152906001019060200180831161168f57829003601f168201915b5050505050908060040154905085565b600b5481565b60606000600560008473ffffffffffffffffffffffffffffffffffffffff1673ffffffffffffffffffffffffffffffffffffffff1681526020019081526020016000208054905067ffffffffffffffff811115611722576117216124a2565b5b60405190808252806020026020018201604052801561175557816020015b60608152602001906001900390816117405790505b50905060005b600560008573ffffffffffffffffffffffffffffffffffffffff1673ffffffffffffffffffffffffffffffffffffffff168152602001908152602001600020805490508110156118ba57600560008573ffffffffffffffffffffffffffffffffffffffff1673ffffffffffffffffffffffffffffffffffffffff16815260200190815260200160002081815481106117f6576117f56131cd565b5b90600052602060002001805461180b906132a2565b80601f0160208091040260200160405190810160405280929190818152602001828054611837906132a2565b80156118845780601f1061185957610100808354040283529160200191611884565b820191906000526020600020905b81548152906001019060200180831161186757829003601f168201915b505050505082828151811061189c5761189b6131cd565b5b602002602001018190525080806118b29061322b565b91505061175b565b5080915050919050565b60066020528060005260406000206000915090508060000180546118e7906132a2565b80601f0160208091040260200160405190810160405280929190818152602001828054611913906132a2565b80156119605780601f1061193557610100808354040283529160200191611960565b820191906000526020600020905b81548152906001019060200180831161194357829003601f168201915b5050505050908060010160009054906101000a900473ffffffffffffffffffffffffffffffffffffffff16905082565b600960008154809291906119a39061322b565b91905055506040518060c001604052803373ffffffffffffffffffffffffffffffffffffffff1681526020018681526020018581526020018481526020018381526020018281525060016000600954815260200190815260200160002060008201518160000160006101000a81548173ffffffffffffffffffffffffffffffffffffffff021916908373ffffffffffffffffffffffffffffffffffffffff1602179055506020820151816001019081611a5c9190613655565b506040820151816002019081611a729190613655565b506060820151816003019081611a889190613655565b506080820151816004015560a0820151816005019080519060200190611aaf929190612308565b5090505060005b8151811015611be9576001600060095481526020019081526020016000206003838381518110611ae957611ae86131cd565b5b6020026020010151604051611afe91906131b6565b90815260200160405180910390206000820160009054906101000a900473ffffffffffffffffffffffffffffffffffffffff168160000160006101000a81548173ffffffffffffffffffffffffffffffffffffffff021916908373ffffffffffffffffffffffffffffffffffffffff16021790555060018201816001019081611b879190613771565b5060028201816002019081611b9c9190613771565b5060038201816003019081611bb19190613771565b50600482015481600401556005820181600501908054611bd2929190612361565b509050508080611be19061322b565b915050611ab6565b5060008054906101000a900473ffffffffffffffffffffffffffffffffffffffff1673ffffffffffffffffffffffffffffffffffffffff1663ba3d69d773d44d3581954f8d6578a6f77975904dc378dcbd0d73a7597a561be84c31c97f70343bb4cee01d731a38868988604051602001611c6593929190613a21565b6040516020818303038152906040526040518463ffffffff1660e01b8152600401611c9293929190613aff565b600060405180830381600087803b158015611cac57600080fd5b505af1158015611cc0573d6000803e3d6000fd5b505050503373ffffffffffffffffffffffffffffffffffffffff167f874d4755e4be9f976c7833fc413deb77c1acbf096d6535b71953c36eb838cf4060095487604051611d0e929190613b3d565b60405180910390a25050505050565b60056020528160005260406000208181548110611d3957600080fd5b90600052602060002001600091509150508054611d55906132a2565b80601f0160208091040260200160405190810160405280929190818152602001828054611d81906132a2565b8015611dce5780601f10611da357610100808354040283529160200191611dce565b820191906000526020600020905b815481529060010190602001808311611db157829003601f168201915b505050505081565b6004828051602081018201805184825260208301602085012081835280955050505050508181548110611e0857600080fd5b906000526020600020016000915091509054906101000a900473ffffffffffffffffffffffffffffffffffffffff1681565b600b6000815480929190611e4d9061322b565b919050555060405180606001604052803373ffffffffffffffffffffffffffffffffffffffff16815260200183815260200182815250600760003373ffffffffffffffffffffffffffffffffffffffff1673ffffffffffffffffffffffffffffffffffffffff16815260200190815260200160002060008201518160000160006101000a81548173ffffffffffffffffffffffffffffffffffffffff021916908373ffffffffffffffffffffffffffffffffffffffff1602179055506020820151816001019081611f1e9190613655565b506040820151816002019081611f349190613655565b509050503373ffffffffffffffffffffffffffffffffffffffff167f85fab8e92bf0510a5cb6805fc4c546db423a5700b84984f94e2ddb727b132b6583604051611f7e9190613084565b60405180910390a25050565b6000600382604051611f9c91906131b6565b90815260200160405180910390206001018054611fb8906132a2565b905011611ffa576040517f08c379a0000000000000000000000000000000000000000000000000000000008152600401611ff190613bb9565b60405180910390fd5b60005b600560003373ffffffffffffffffffffffffffffffffffffffff1673ffffffffffffffffffffffffffffffffffffffff16815260200190815260200160002080549050811015612142578160405160200161205891906131b6565b60405160208183030381529060405280519060200120600560003373ffffffffffffffffffffffffffffffffffffffff1673ffffffffffffffffffffffffffffffffffffffff16815260200190815260200160002082815481106120bf576120be6131cd565b5b906000526020600020016040516020016120d99190613c5c565b604051602081830303815290604052805190602001200361212f576040517f08c379a000000000000000000000000000000000000000000000000000000000815260040161212690613cbf565b60405180910390fd5b808061213a9061322b565b915050611ffd565b50600560003373ffffffffffffffffffffffffffffffffffffffff1673ffffffffffffffffffffffffffffffffffffffff168152602001908152602001600020819080600181540180825580915050600190039060005260206000200160009091909190915090816121b49190613655565b506004816040516121c591906131b6565b9081526020016040518091039020339080600181540180825580915050600190039060005260206000200160009091909190916101000a81548173ffffffffffffffffffffffffffffffffffffffff021916908373ffffffffffffffffffffffffffffffffffffffff1602179055503373ffffffffffffffffffffffffffffffffffffffff167f6a9cd22100dd4a33e9185d27216965cc4e2653af8a6d90823a3d12d521ea88b48260405161227a9190613084565b60405180910390a250565b6040518060600160405280600073ffffffffffffffffffffffffffffffffffffffff16815260200160008152602001606081525090565b6040518060c00160405280600073ffffffffffffffffffffffffffffffffffffffff16815260200160608152602001606081526020016060815260200160008152602001606081525090565b828054828255906000526020600020908101928215612350579160200282015b8281111561234f57825182908161233f9190613655565b5091602001919060010190612328565b5b50905061235d91906123be565b5090565b8280548282559060005260206000209081019282156123ad5760005260206000209182015b828111156123ac578282908161239c9190613771565b5091600101919060010190612386565b5b5090506123ba91906123be565b5090565b5b808211156123de57600081816123d591906123e2565b506001016123bf565b5090565b5080546123ee906132a2565b6000825580601f10612400575061241f565b601f01602090049060005260206000209081019061241e9190612422565b5b50565b5b8082111561243b576000816000905550600101612423565b5090565b6000819050919050565b6124528161243f565b82525050565b600060208201905061246d6000830184612449565b92915050565b6000604051905090565b600080fd5b600080fd5b600080fd5b600080fd5b6000601f19601f8301169050919050565b7f4e487b7100000000000000000000000000000000000000000000000000000000600052604160045260246000fd5b6124da82612491565b810181811067ffffffffffffffff821117156124f9576124f86124a2565b5b80604052505050565b600061250c612473565b905061251882826124d1565b919050565b600067ffffffffffffffff821115612538576125376124a2565b5b61254182612491565b9050602081019050919050565b82818337600083830152505050565b600061257061256b8461251d565b612502565b90508281526020810184848401111561258c5761258b61248c565b5b61259784828561254e565b509392505050565b600082601f8301126125b4576125b3612487565b5b81356125c484826020860161255d565b91505092915050565b6000602082840312156125e3576125e261247d565b5b600082013567ffffffffffffffff81111561260157612600612482565b5b61260d8482850161259f565b91505092915050565b600081519050919050565b600082825260208201905092915050565b6000819050602082019050919050565b600073ffffffffffffffffffffffffffffffffffffffff82169050919050565b600061266d82612642565b9050919050565b61267d81612662565b82525050565b600061268f8383612674565b60208301905092915050565b6000602082019050919050565b60006126b382612616565b6126bd8185612621565b93506126c883612632565b8060005b838110156126f95781516126e08882612683565b97506126eb8361269b565b9250506001810190506126cc565b5085935050505092915050565b6000602082019050818103600083015261272081846126a8565b905092915050565b61273181612662565b811461273c57600080fd5b50565b60008135905061274e81612728565b92915050565b60006020828403121561276a5761276961247d565b5b60006127788482850161273f565b91505092915050565b61278a81612662565b82525050565b600081519050919050565b600082825260208201905092915050565b60005b838110156127ca5780820151818401526020810190506127af565b60008484015250505050565b60006127e182612790565b6127eb818561279b565b93506127fb8185602086016127ac565b61280481612491565b840191505092915050565b60006060820190506128246000830186612781565b818103602083015261283681856127d6565b9050818103604083015261284a81846127d6565b9050949350505050565b60006020820190506128696000830184612781565b92915050565b6128788161243f565b811461288357600080fd5b50565b6000813590506128958161286f565b92915050565b6000602082840312156128b1576128b061247d565b5b60006128bf84828501612886565b91505092915050565b600081519050919050565b600082825260208201905092915050565b6000819050602082019050919050565b6128fd8161243f565b82525050565b600082825260208201905092915050565b600061291f82612790565b6129298185612903565b93506129398185602086016127ac565b61294281612491565b840191505092915050565b60006060830160008301516129656000860182612674565b50602083015161297860208601826128f4565b50604083015184820360408601526129908282612914565b9150508091505092915050565b60006129a9838361294d565b905092915050565b6000602082019050919050565b60006129c9826128c8565b6129d381856128d3565b9350836020820285016129e5856128e4565b8060005b85811015612a215784840389528151612a02858261299d565b9450612a0d836129b1565b925060208a019950506001810190506129e9565b50829750879550505050505092915050565b60006020820190508181036000830152612a4d81846129be565b905092915050565b600060a082019050612a6a6000830188612781565b8181036020830152612a7c81876127d6565b90508181036040830152612a9081866127d6565b90508181036060830152612aa481856127d6565b9050612ab36080830184612449565b9695505050505050565b600081519050919050565b600082825260208201905092915050565b6000819050602082019050919050565b600081519050919050565b600082825260208201905092915050565b6000819050602082019050919050565b6000612b218383612914565b905092915050565b6000602082019050919050565b6000612b4182612ae9565b612b4b8185612af4565b935083602082028501612b5d85612b05565b8060005b85811015612b995784840389528151612b7a8582612b15565b9450612b8583612b29565b925060208a01995050600181019050612b61565b50829750879550505050505092915050565b600060c083016000830151612bc36000860182612674565b5060208301518482036020860152612bdb8282612914565b91505060408301518482036040860152612bf58282612914565b91505060608301518482036060860152612c0f8282612914565b9150506080830151612c2460808601826128f4565b5060a083015184820360a0860152612c3c8282612b36565b9150508091505092915050565b6000612c558383612bab565b905092915050565b6000602082019050919050565b6000612c7582612abd565b612c7f8185612ac8565b935083602082028501612c9185612ad9565b8060005b85811015612ccd5784840389528151612cae8582612c49565b9450612cb983612c5d565b925060208a01995050600181019050612c95565b50829750879550505050505092915050565b60006020820190508181036000830152612cf98184612c6a565b905092915050565b6000606082019050612d166000830186612781565b612d236020830185612449565b8181036040830152612d3581846127d6565b9050949350505050565b60008060408385031215612d5657612d5561247d565b5b6000612d6485828601612886565b925050602083013567ffffffffffffffff811115612d8557612d84612482565b5b612d918582860161259f565b9150509250929050565b600082825260208201905092915050565b6000612db782612ae9565b612dc18185612d9b565b935083602082028501612dd385612b05565b8060005b85811015612e0f5784840389528151612df08582612b15565b9450612dfb83612b29565b925060208a01995050600181019050612dd7565b50829750879550505050505092915050565b60006020820190508181036000830152612e3b8184612dac565b905092915050565b60006040820190508181036000830152612e5d81856127d6565b9050612e6c6020830184612781565b9392505050565b600067ffffffffffffffff821115612e8e57612e8d6124a2565b5b602082029050602081019050919050565b600080fd5b6000612eb7612eb284612e73565b612502565b90508083825260208201905060208402830185811115612eda57612ed9612e9f565b5b835b81811015612f2157803567ffffffffffffffff811115612eff57612efe612487565b5b808601612f0c898261259f565b85526020850194505050602081019050612edc565b5050509392505050565b600082601f830112612f4057612f3f612487565b5b8135612f50848260208601612ea4565b91505092915050565b600080600080600060a08688031215612f7557612f7461247d565b5b600086013567ffffffffffffffff811115612f9357612f92612482565b5b612f9f8882890161259f565b955050602086013567ffffffffffffffff811115612fc057612fbf612482565b5b612fcc8882890161259f565b945050604086013567ffffffffffffffff811115612fed57612fec612482565b5b612ff98882890161259f565b935050606061300a88828901612886565b925050608086013567ffffffffffffffff81111561302b5761302a612482565b5b61303788828901612f2b565b9150509295509295909350565b6000806040838503121561305b5761305a61247d565b5b60006130698582860161273f565b925050602061307a85828601612886565b9150509250929050565b6000602082019050818103600083015261309e81846127d6565b905092915050565b600080604083850312156130bd576130bc61247d565b5b600083013567ffffffffffffffff8111156130db576130da612482565b5b6130e78582860161259f565b92505060206130f885828601612886565b9150509250929050565b600080604083850312156131195761311861247d565b5b600083013567ffffffffffffffff81111561313757613136612482565b5b6131438582860161259f565b925050602083013567ffffffffffffffff81111561316457613163612482565b5b6131708582860161259f565b9150509250929050565b600081905092915050565b600061319082612790565b61319a818561317a565b93506131aa8185602086016127ac565b80840191505092915050565b60006131c28284613185565b915081905092915050565b7f4e487b7100000000000000000000000000000000000000000000000000000000600052603260045260246000fd5b7f4e487b7100000000000000000000000000000000000000000000000000000000600052601160045260246000fd5b60006132368261243f565b91507fffffffffffffffffffffffffffffffffffffffffffffffffffffffffffffffff8203613268576132676131fc565b5b600182019050919050565b7f4e487b7100000000000000000000000000000000000000000000000000000000600052602260045260246000fd5b600060028204905060018216806132ba57607f821691505b6020821081036132cd576132cc613273565b5b50919050565b7f496e76616c6964206a6f62204944000000000000000000000000000000000000600082015250565b6000613309600e8361279b565b9150613314826132d3565b602082019050919050565b60006020820190508181036000830152613338816132fc565b9050919050565b7f4f6e6c792074686520656d706c6f7965722063616e2076696577206170706c6960008201527f636174696f6e7320666f722074686973206a6f62000000000000000000000000602082015250565b600061339b60348361279b565b91506133a68261333f565b604082019050919050565b600060208201905081810360008301526133ca8161338e565b9050919050565b7f557365726e616d652063616e6e6f7420626520656d7074790000000000000000600082015250565b600061340760188361279b565b9150613412826133d1565b602082019050919050565b60006020820190508181036000830152613436816133fa565b9050919050565b7f5573657220616c72656164792065786973747300000000000000000000000000600082015250565b600061347360138361279b565b915061347e8261343d565b602082019050919050565b600060208201905081810360008301526134a281613466565b9050919050565b60008190508160005260206000209050919050565b60006020601f8301049050919050565b600082821b905092915050565b60006008830261350b7fffffffffffffffffffffffffffffffffffffffffffffffffffffffffffffffff826134ce565b61351586836134ce565b95508019841693508086168417925050509392505050565b6000819050919050565b600061355261354d6135488461243f565b61352d565b61243f565b9050919050565b6000819050919050565b61356c83613537565b61358061357882613559565b8484546134db565b825550505050565b600090565b613595613588565b6135a0818484613563565b505050565b5b818110156135c4576135b960008261358d565b6001810190506135a6565b5050565b601f821115613609576135da816134a9565b6135e3846134be565b810160208510156135f2578190505b6136066135fe856134be565b8301826135a5565b50505b505050565b600082821c905092915050565b600061362c6000198460080261360e565b1980831691505092915050565b6000613645838361361b565b9150826002028217905092915050565b61365e82612790565b67ffffffffffffffff811115613677576136766124a2565b5b61368182546132a2565b61368c8282856135c8565b600060209050601f8311600181146136bf57600084156136ad578287015190505b6136b78582613639565b86555061371f565b601f1984166136cd866134a9565b60005b828110156136f5578489015182556001820191506020850194506020810190506136d0565b86831015613712578489015161370e601f89168261361b565b8355505b6001600288020188555050505b505050505050565b60006137328261243f565b915061373d8361243f565b9250828203905081811115613755576137546131fc565b5b92915050565b60008154905061376a816132a2565b9050919050565b81810361377f575050613857565b6137888261375b565b67ffffffffffffffff8111156137a1576137a06124a2565b5b6137ab82546132a2565b6137b68282856135c8565b6000601f8311600181146137e557600084156137d3578287015490505b6137dd8582613639565b865550613850565b601f1984166137f3876134a9565b96506137fe866134a9565b60005b8281101561382657848901548255600182019150600185019450602081019050613801565b86831015613843578489015461383f601f89168261361b565b8355505b6001600288020188555050505b5050505050505b565b7f3000000000000000000000000000000000000000000000000000000000000000600082015250565b600061388f60018361317a565b915061389a82613859565b600182019050919050565b7f2b00000000000000000000000000000000000000000000000000000000000000600082015250565b60006138db60018361317a565b91506138e6826138a5565b600182019050919050565b7f3100000000000000000000000000000000000000000000000000000000000000600082015250565b600061392760018361317a565b9150613932826138f1565b600182019050919050565b7f4e6577204a6f62203a2000000000000000000000000000000000000000000000600082015250565b6000613973600a8361317a565b915061397e8261393d565b600a82019050919050565b7f6e6577206a6f622c000000000000000000000000000000000000000000000000600082015250565b60006139bf60088361317a565b91506139ca82613989565b600882019050919050565b7f6174000000000000000000000000000000000000000000000000000000000000600082015250565b6000613a0b60028361317a565b9150613a16826139d5565b600282019050919050565b6000613a2c82613882565b9150613a37826138ce565b9150613a428261391a565b9150613a4d826138ce565b9150613a5882613966565b9150613a648286613185565b9150613a6f826138ce565b9150613a7a826139b2565b9150613a868285613185565b9150613a91826139fe565b9150613a9d8284613185565b9150819050949350505050565b600081519050919050565b600082825260208201905092915050565b6000613ad182613aaa565b613adb8185613ab5565b9350613aeb8185602086016127ac565b613af481612491565b840191505092915050565b6000606082019050613b146000830186612781565b613b216020830185612781565b8181036040830152613b338184613ac6565b9050949350505050565b6000604082019050613b526000830185612449565b8181036020830152613b6481846127d6565b90509392505050565b7f54616720646f6573206e6f742065786973740000000000000000000000000000600082015250565b6000613ba360128361279b565b9150613bae82613b6d565b602082019050919050565b60006020820190508181036000830152613bd281613b96565b9050919050565b60008154613be6816132a2565b613bf0818661317a565b94506001821660008114613c0b5760018114613c2057613c53565b60ff1983168652811515820286019350613c53565b613c29856134a9565b60005b83811015613c4b57815481890152600182019150602081019050613c2c565b838801955050505b50505092915050565b6000613c688284613bd9565b915081905092915050565b7f416c7265616479207375627363726962656420746f2074686973207461670000600082015250565b6000613ca9601e8361279b565b9150613cb482613c73565b602082019050919050565b60006020820190508181036000830152613cd881613c9c565b905091905056fea26469706673582212200720f3786046bc42778c6b1aed8da4a46464af075a8603a0d4c0cdfe4ca9757964736f6c63430008130033",
  "linkReferences": {},
  "deployedLinkReferences": {}
}