{
  "_format": "hh-sol-artifact-1",
  "contractName": "LGBTQJobMarket",
  "sourceName": "contracts/jobs.sol",
  "abi": [
    {
      "anonymous": false,
      "inputs": [
        {
          "indexed": true,
          "internalType": "address",
          "name": "owner",
          "type": "address"
        },
        {
          "indexed": false,
          "internalType": "string",
          "name": "companyName",
          "type": "string"
        }
      ],
      "name": "CompanyCreated",
      "type": "event"
    },
    {
      "anonymous": false,
      "inputs": [
        {
          "indexed": false,
          "internalType": "uint256",
          "name": "applicationId",
          "type": "uint256"
        },
        {
          "indexed": true,
          "internalType": "address",
          "name": "applicant",
          "type": "address"
        },
        {
          "indexed": true,
          "internalType": "uint256",
          "name": "jobId",
          "type": "uint256"
        }
      ],
      "name": "JobApplied",
      "type": "event"
    },
    {
      "anonymous": false,
      "inputs": [
        {
          "indexed": false,
          "internalType": "uint256",
          "name": "jobId",
          "type": "uint256"
        },
        {
          "indexed": true,
          "internalType": "address",
          "name": "employer",
          "type": "address"
        },
        {
          "indexed": false,
          "internalType": "string",
          "name": "jobTitle",
          "type": "string"
        }
      ],
      "name": "JobPosted",
      "type": "event"
    },
    {
      "anonymous": false,
      "inputs": [
        {
          "indexed": true,
          "internalType": "address",
          "name": "user",
          "type": "address"
        },
        {
          "indexed": false,
          "internalType": "string",
          "name": "tag",
          "type": "string"
        }
      ],
      "name": "SubscriptionAdded",
      "type": "event"
    },
    {
      "anonymous": false,
      "inputs": [
        {
          "indexed": true,
          "internalType": "address",
          "name": "user",
          "type": "address"
        },
        {
          "indexed": false,
          "internalType": "string",
          "name": "username",
          "type": "string"
        }
      ],
      "name": "UserCreated",
      "type": "event"
    },
    {
      "inputs": [],
      "name": "EPNS_COMM_ADDRESS",
      "outputs": [
        {
          "internalType": "address",
          "name": "",
          "type": "address"
        }
      ],
      "stateMutability": "view",
      "type": "function"
    },
    {
      "inputs": [
        {
          "internalType": "uint256",
          "name": "_jobId",
          "type": "uint256"
        },
        {
          "internalType": "string",
          "name": "_resumeHash",
          "type": "string"
        }
      ],
      "name": "applyForJob",
      "outputs": [],
      "stateMutability": "nonpayable",
      "type": "function"
    },
    {
      "inputs": [
        {
          "internalType": "address",
          "name": "",
          "type": "address"
        }
      ],
      "name": "companies",
      "outputs": [
        {
          "internalType": "address",
          "name": "owner",
          "type": "address"
        },
        {
          "internalType": "string",
          "name": "companyName",
          "type": "string"
        },
        {
          "internalType": "string",
          "name": "companyDescription",
          "type": "string"
        }
      ],
      "stateMutability": "view",
      "type": "function"
    },
    {
      "inputs": [],
      "name": "companyCount",
      "outputs": [
        {
          "internalType": "uint256",
          "name": "",
          "type": "uint256"
        }
      ],
      "stateMutability": "view",
      "type": "function"
    },
    {
      "inputs": [
        {
          "internalType": "string",
          "name": "_companyName",
          "type": "string"
        },
        {
          "internalType": "string",
          "name": "_companyDescription",
          "type": "string"
        }
      ],
      "name": "createCompany",
      "outputs": [],
      "stateMutability": "nonpayable",
      "type": "function"
    },
    {
      "inputs": [
        {
          "internalType": "string",
          "name": "_username",
          "type": "string"
        }
      ],
      "name": "createUser",
      "outputs": [],
      "stateMutability": "nonpayable",
      "type": "function"
    },
    {
      "inputs": [
        {
          "internalType": "uint256",
          "name": "_jobId",
          "type": "uint256"
        }
      ],
      "name": "getApplicationsForJob",
      "outputs": [
        {
          "components": [
            {
              "internalType": "address",
              "name": "applicant",
              "type": "address"
            },
            {
              "internalType": "uint256",
              "name": "jobId",
              "type": "uint256"
            },
            {
              "internalType": "string",
              "name": "resumeHash",
              "type": "string"
            }
          ],
          "internalType": "struct LGBTQJobMarket.JobApplication[]",
          "name": "",
          "type": "tuple[]"
        }
      ],
      "stateMutability": "view",
      "type": "function"
    },
    {
      "inputs": [],
      "name": "getJobs",
      "outputs": [
        {
          "components": [
            {
              "internalType": "address",
              "name": "employer",
              "type": "address"
            },
            {
              "internalType": "string",
              "name": "jobTitle",
              "type": "string"
            },
            {
              "internalType": "string",
              "name": "jobDescription",
              "type": "string"
            },
            {
              "internalType": "string",
              "name": "companyName",
              "type": "string"
            },
            {
              "internalType": "uint256",
              "name": "salary",
              "type": "uint256"
            },
            {
              "internalType": "string[]",
              "name": "tags",
              "type": "string[]"
            }
          ],
          "internalType": "struct LGBTQJobMarket.JobPosting[]",
          "name": "",
          "type": "tuple[]"
        }
      ],
      "stateMutability": "view",
      "type": "function"
    },
    {
      "inputs": [
        {
          "internalType": "address",
          "name": "_user",
          "type": "address"
        }
      ],
      "name": "getTagsSubscribedByUser",
      "outputs": [
        {
          "internalType": "string[]",
          "name": "",
          "type": "string[]"
        }
      ],
      "stateMutability": "view",
      "type": "function"
    },
    {
      "inputs": [
        {
          "internalType": "string",
          "name": "_tag",
          "type": "string"
        }
      ],
      "name": "getUsersSubscribedToTag",
      "outputs": [
        {
          "internalType": "address[]",
          "name": "",
          "type": "address[]"
        }
      ],
      "stateMutability": "view",
      "type": "function"
    },
    {
      "inputs": [],
      "name": "jobApplicationCount",
      "outputs": [
        {
          "internalType": "uint256",
          "name": "",
          "type": "uint256"
        }
      ],
      "stateMutability": "view",
      "type": "function"
    },
    {
      "inputs": [
        {
          "internalType": "uint256",
          "name": "",
          "type": "uint256"
        }
      ],
      "name": "jobApplications",
      "outputs": [
        {
          "internalType": "address",
          "name": "applicant",
          "type": "address"
        },
        {
          "internalType": "uint256",
          "name": "jobId",
          "type": "uint256"
        },
        {
          "internalType": "string",
          "name": "resumeHash",
          "type": "string"
        }
      ],
      "stateMutability": "view",
      "type": "function"
    },
    {
      "inputs": [],
      "name": "jobPostingCount",
      "outputs": [
        {
          "internalType": "uint256",
          "name": "",
          "type": "uint256"
        }
      ],
      "stateMutability": "view",
      "type": "function"
    },
    {
      "inputs": [
        {
          "internalType": "uint256",
          "name": "",
          "type": "uint256"
        }
      ],
      "name": "jobPostings",
      "outputs": [
        {
          "internalType": "address",
          "name": "employer",
          "type": "address"
        },
        {
          "internalType": "string",
          "name": "jobTitle",
          "type": "string"
        },
        {
          "internalType": "string",
          "name": "jobDescription",
          "type": "string"
        },
        {
          "internalType": "string",
          "name": "companyName",
          "type": "string"
        },
        {
          "internalType": "uint256",
          "name": "salary",
          "type": "uint256"
        }
      ],
      "stateMutability": "view",
      "type": "function"
    },
    {
      "inputs": [
        {
          "internalType": "string",
          "name": "",
          "type": "string"
        }
      ],
      "name": "jobsByTag",
      "outputs": [
        {
          "internalType": "address",
          "name": "employer",
          "type": "address"
        },
        {
          "internalType": "string",
          "name": "jobTitle",
          "type": "string"
        },
        {
          "internalType": "string",
          "name": "jobDescription",
          "type": "string"
        },
        {
          "internalType": "string",
          "name": "companyName",
          "type": "string"
        },
        {
          "internalType": "uint256",
          "name": "salary",
          "type": "uint256"
        }
      ],
      "stateMutability": "view",
      "type": "function"
    },
    {
      "inputs": [
        {
          "internalType": "string",
          "name": "_jobTitle",
          "type": "string"
        },
        {
          "internalType": "string",
          "name": "_jobDescription",
          "type": "string"
        },
        {
          "internalType": "string",
          "name": "_companyName",
          "type": "string"
        },
        {
          "internalType": "uint256",
          "name": "_salary",
          "type": "uint256"
        },
        {
          "internalType": "string[]",
          "name": "_tags",
          "type": "string[]"
        }
      ],
      "name": "postJob",
      "outputs": [],
      "stateMutability": "nonpayable",
      "type": "function"
    },
    {
      "inputs": [
        {
          "internalType": "string",
          "name": "_tag",
          "type": "string"
        }
      ],
      "name": "subscribeToTag",
      "outputs": [],
      "stateMutability": "nonpayable",
      "type": "function"
    },
    {
      "inputs": [
        {
          "internalType": "string",
          "name": "",
          "type": "string"
        },
        {
          "internalType": "uint256",
          "name": "",
          "type": "uint256"
        }
      ],
      "name": "tagSubscibers",
      "outputs": [
        {
          "internalType": "address",
          "name": "",
          "type": "address"
        }
      ],
      "stateMutability": "view",
      "type": "function"
    },
    {
      "inputs": [],
      "name": "userCount",
      "outputs": [
        {
          "internalType": "uint256",
          "name": "",
          "type": "uint256"
        }
      ],
      "stateMutability": "view",
      "type": "function"
    },
    {
      "inputs": [
        {
          "internalType": "address",
          "name": "",
          "type": "address"
        },
        {
          "internalType": "uint256",
          "name": "",
          "type": "uint256"
        }
      ],
      "name": "userSubscriptions",
      "outputs": [
        {
          "internalType": "string",
          "name": "",
          "type": "string"
        }
      ],
      "stateMutability": "view",
      "type": "function"
    },
    {
      "inputs": [
        {
          "internalType": "address",
          "name": "",
          "type": "address"
        }
      ],
      "name": "users",
      "outputs": [
        {
          "internalType": "string",
          "name": "username",
          "type": "string"
        },
        {
          "internalType": "address",
          "name": "userAddress",
          "type": "address"
        }
      ],
      "stateMutability": "view",
      "type": "function"
    }
  ],
  "bytecode": "0x6080604052730c34d54a09cfe75bccd878a469206ae77e0fe6e76000806101000a81548173ffffffffffffffffffffffffffffffffffffffff021916908373ffffffffffffffffffffffffffffffffffffffff16021790555034801561006457600080fd5b50613da2806100746000396000f3fe608060405234801561001057600080fd5b50600436106101375760003560e01c80638bd56880116100b8578063a87430ba1161007c578063a87430ba14610384578063b8e002a5146103b5578063c95d6edc146103d1578063e7898f1814610401578063f14513f214610431578063f54c93e91461044d57610137565b80638bd56880146102c65780638bdb5355146102e45780638e304559146103025780638e75dd4714610336578063967c00601461035457610137565b8063507ffba5116100ff578063507ffba51461020a578063622359b91461022657806368581ebd1461025a578063699687cf146102785780636c09a5e3146102aa57610137565b806307973ccf1461013c5780633532bab41461015a578063355e6ce81461018a57806348a3b4a4146101bc5780634d91e57d146101da575b600080fd5b610144610469565b604051610151919061245c565b60405180910390f35b610174600480360381019061016f91906125d1565b61046f565b604051610181919061270a565b60405180910390f35b6101a4600480360381019061019f9190612758565b6105d0565b6040516101b393929190612813565b60405180910390f35b6101c461072a565b6040516101d19190612858565b60405180910390f35b6101f460048036038101906101ef919061289f565b61074e565b6040516102019190612a37565b60405180910390f35b610224600480360381019061021f91906125d1565b610a78565b005b610240600480360381019061023b919061289f565b610cc0565b604051610251959493929190612a59565b60405180910390f35b610262610eae565b60405161026f9190612ce3565b60405180910390f35b610292600480360381019061028d919061289f565b61126c565b6040516102a193929190612d05565b60405180910390f35b6102c460048036038101906102bf9190612d43565b61133e565b005b6102ce6114ac565b6040516102db919061245c565b60405180910390f35b6102ec6114b2565b6040516102f9919061245c565b60405180910390f35b61031c600480360381019061031791906125d1565b6114b8565b60405161032d959493929190612a59565b60405180910390f35b61033e6116bc565b60405161034b919061245c565b60405180910390f35b61036e60048036038101906103699190612758565b6116c2565b60405161037b9190612e25565b60405180910390f35b61039e60048036038101906103999190612758565b6118c4565b6040516103ac929190612e47565b60405180910390f35b6103cf60048036038101906103ca9190612f5d565b611990565b005b6103eb60048036038101906103e69190613048565b611d21565b6040516103f89190613088565b60405180910390f35b61041b600480360381019061041691906130aa565b611dda565b6040516104289190612858565b60405180910390f35b61044b60048036038101906104469190613106565b611e3e565b005b610467600480360381019061046291906125d1565b611f8e565b005b60085481565b6060600060048360405161048391906131ba565b90815260200160405180910390208054905067ffffffffffffffff8111156104ae576104ad6124a6565b5b6040519080825280602002602001820160405280156104dc5781602001602082028036833780820191505090505b50905060005b6004846040516104f291906131ba565b9081526020016040518091039020805490508110156105c65760048460405161051b91906131ba565b9081526020016040518091039020818154811061053b5761053a6131d1565b5b9060005260206000200160009054906101000a900473ffffffffffffffffffffffffffffffffffffffff16828281518110610579576105786131d1565b5b602002602001019073ffffffffffffffffffffffffffffffffffffffff16908173ffffffffffffffffffffffffffffffffffffffff168152505080806105be9061322f565b9150506104e2565b5080915050919050565b60076020528060005260406000206000915090508060000160009054906101000a900473ffffffffffffffffffffffffffffffffffffffff1690806001018054610619906132a6565b80601f0160208091040260200160405190810160405280929190818152602001828054610645906132a6565b80156106925780601f1061066757610100808354040283529160200191610692565b820191906000526020600020905b81548152906001019060200180831161067557829003601f168201915b5050505050908060020180546106a7906132a6565b80601f01602080910402602001604051908101604052809291908181526020018280546106d3906132a6565b80156107205780601f106106f557610100808354040283529160200191610720565b820191906000526020600020905b81548152906001019060200180831161070357829003601f168201915b5050505050905083565b60008054906101000a900473ffffffffffffffffffffffffffffffffffffffff1681565b606060008211801561076257506009548211155b6107a1576040517f08c379a000000000000000000000000000000000000000000000000000000000815260040161079890613323565b60405180910390fd5b6001600083815260200190815260200160002060000160009054906101000a900473ffffffffffffffffffffffffffffffffffffffff1673ffffffffffffffffffffffffffffffffffffffff163373ffffffffffffffffffffffffffffffffffffffff1614610845576040517f08c379a000000000000000000000000000000000000000000000000000000000815260040161083c906133b5565b60405180910390fd5b600080600190505b600a548111610895578360026000838152602001908152602001600020600101540361088257818061087e9061322f565b9250505b808061088d9061322f565b91505061084d565b5060008167ffffffffffffffff8111156108b2576108b16124a6565b5b6040519080825280602002602001820160405280156108eb57816020015b6108d8612289565b8152602001906001900390816108d05790505b509050600080600190505b600a548111610a6c5785600260008381526020019081526020016000206001015403610a5957600260008281526020019081526020016000206040518060600160405290816000820160009054906101000a900473ffffffffffffffffffffffffffffffffffffffff1673ffffffffffffffffffffffffffffffffffffffff1673ffffffffffffffffffffffffffffffffffffffff168152602001600182015481526020016002820180546109aa906132a6565b80601f01602080910402602001604051908101604052809291908181526020018280546109d6906132a6565b8015610a235780601f106109f857610100808354040283529160200191610a23565b820191906000526020600020905b815481529060010190602001808311610a0657829003601f168201915b505050505081525050838381518110610a3f57610a3e6131d1565b5b60200260200101819052508180610a559061322f565b9250505b8080610a649061322f565b9150506108f6565b50819350505050919050565b6000815111610abc576040517f08c379a0000000000000000000000000000000000000000000000000000000008152600401610ab390613421565b60405180910390fd5b600073ffffffffffffffffffffffffffffffffffffffff16600660003373ffffffffffffffffffffffffffffffffffffffff1673ffffffffffffffffffffffffffffffffffffffff16815260200190815260200160002060010160009054906101000a900473ffffffffffffffffffffffffffffffffffffffff1673ffffffffffffffffffffffffffffffffffffffff1614610b8d576040517f08c379a0000000000000000000000000000000000000000000000000000000008152600401610b849061348d565b60405180910390fd5b60086000815480929190610ba09061322f565b919050555060405180604001604052808281526020013373ffffffffffffffffffffffffffffffffffffffff16815250600660003373ffffffffffffffffffffffffffffffffffffffff1673ffffffffffffffffffffffffffffffffffffffff1681526020019081526020016000206000820151816000019081610c249190613659565b5060208201518160010160006101000a81548173ffffffffffffffffffffffffffffffffffffffff021916908373ffffffffffffffffffffffffffffffffffffffff1602179055509050503373ffffffffffffffffffffffffffffffffffffffff167f9954bce02f72fbdef0fa668ac6f42e434b5829615dac2fb22448054d2359d4f682604051610cb59190613088565b60405180910390a250565b60016020528060005260406000206000915090508060000160009054906101000a900473ffffffffffffffffffffffffffffffffffffffff1690806001018054610d09906132a6565b80601f0160208091040260200160405190810160405280929190818152602001828054610d35906132a6565b8015610d825780601f10610d5757610100808354040283529160200191610d82565b820191906000526020600020905b815481529060010190602001808311610d6557829003601f168201915b505050505090806002018054610d97906132a6565b80601f0160208091040260200160405190810160405280929190818152602001828054610dc3906132a6565b8015610e105780601f10610de557610100808354040283529160200191610e10565b820191906000526020600020905b815481529060010190602001808311610df357829003601f168201915b505050505090806003018054610e25906132a6565b80601f0160208091040260200160405190810160405280929190818152602001828054610e51906132a6565b8015610e9e5780601f10610e7357610100808354040283529160200191610e9e565b820191906000526020600020905b815481529060010190602001808311610e8157829003601f168201915b5050505050908060040154905085565b6060600060095467ffffffffffffffff811115610ece57610ecd6124a6565b5b604051908082528060200260200182016040528015610f0757816020015b610ef46122c0565b815260200190600190039081610eec5790505b5090506000600190505b600954811161126457600160008281526020019081526020016000206040518060c00160405290816000820160009054906101000a900473ffffffffffffffffffffffffffffffffffffffff1673ffffffffffffffffffffffffffffffffffffffff1673ffffffffffffffffffffffffffffffffffffffff168152602001600182018054610f9e906132a6565b80601f0160208091040260200160405190810160405280929190818152602001828054610fca906132a6565b80156110175780601f10610fec57610100808354040283529160200191611017565b820191906000526020600020905b815481529060010190602001808311610ffa57829003601f168201915b50505050508152602001600282018054611030906132a6565b80601f016020809104026020016040519081016040528092919081815260200182805461105c906132a6565b80156110a95780601f1061107e576101008083540402835291602001916110a9565b820191906000526020600020905b81548152906001019060200180831161108c57829003601f168201915b505050505081526020016003820180546110c2906132a6565b80601f01602080910402602001604051908101604052809291908181526020018280546110ee906132a6565b801561113b5780601f106111105761010080835404028352916020019161113b565b820191906000526020600020905b81548152906001019060200180831161111e57829003601f168201915b505050505081526020016004820154815260200160058201805480602002602001604051908101604052809291908181526020016000905b8282101561121f578382906000526020600020018054611192906132a6565b80601f01602080910402602001604051908101604052809291908181526020018280546111be906132a6565b801561120b5780601f106111e05761010080835404028352916020019161120b565b820191906000526020600020905b8154815290600101906020018083116111ee57829003601f168201915b505050505081526020019060010190611173565b505050508152505082600183611235919061372b565b81518110611246576112456131d1565b5b6020026020010181905250808061125c9061322f565b915050610f11565b508091505090565b60026020528060005260406000206000915090508060000160009054906101000a900473ffffffffffffffffffffffffffffffffffffffff16908060010154908060020180546112bb906132a6565b80601f01602080910402602001604051908101604052809291908181526020018280546112e7906132a6565b80156113345780601f1061130957610100808354040283529160200191611334565b820191906000526020600020905b81548152906001019060200180831161131757829003601f168201915b5050505050905083565b60008211801561135057506009548211155b61138f576040517f08c379a000000000000000000000000000000000000000000000000000000000815260040161138690613323565b60405180910390fd5b600a60008154809291906113a29061322f565b919050555060405180606001604052803373ffffffffffffffffffffffffffffffffffffffff1681526020018381526020018281525060026000600a54815260200190815260200160002060008201518160000160006101000a81548173ffffffffffffffffffffffffffffffffffffffff021916908373ffffffffffffffffffffffffffffffffffffffff1602179055506020820151816001015560408201518160020190816114539190613659565b50905050813373ffffffffffffffffffffffffffffffffffffffff167f81bbe3bd8cd7aca942797e968d27abaa8f12cfb189d8d0e56b49453fb8590c73600a546040516114a0919061245c565b60405180910390a35050565b600a5481565b60095481565b6003818051602081018201805184825260208301602085012081835280955050505050506000915090508060000160009054906101000a900473ffffffffffffffffffffffffffffffffffffffff1690806001018054611517906132a6565b80601f0160208091040260200160405190810160405280929190818152602001828054611543906132a6565b80156115905780601f1061156557610100808354040283529160200191611590565b820191906000526020600020905b81548152906001019060200180831161157357829003601f168201915b5050505050908060020180546115a5906132a6565b80601f01602080910402602001604051908101604052809291908181526020018280546115d1906132a6565b801561161e5780601f106115f35761010080835404028352916020019161161e565b820191906000526020600020905b81548152906001019060200180831161160157829003601f168201915b505050505090806003018054611633906132a6565b80601f016020809104026020016040519081016040528092919081815260200182805461165f906132a6565b80156116ac5780601f10611681576101008083540402835291602001916116ac565b820191906000526020600020905b81548152906001019060200180831161168f57829003601f168201915b5050505050908060040154905085565b600b5481565b60606000600560008473ffffffffffffffffffffffffffffffffffffffff1673ffffffffffffffffffffffffffffffffffffffff1681526020019081526020016000208054905067ffffffffffffffff811115611722576117216124a6565b5b60405190808252806020026020018201604052801561175557816020015b60608152602001906001900390816117405790505b50905060005b600560008573ffffffffffffffffffffffffffffffffffffffff1673ffffffffffffffffffffffffffffffffffffffff168152602001908152602001600020805490508110156118ba57600560008573ffffffffffffffffffffffffffffffffffffffff1673ffffffffffffffffffffffffffffffffffffffff16815260200190815260200160002081815481106117f6576117f56131d1565b5b90600052602060002001805461180b906132a6565b80601f0160208091040260200160405190810160405280929190818152602001828054611837906132a6565b80156118845780601f1061185957610100808354040283529160200191611884565b820191906000526020600020905b81548152906001019060200180831161186757829003601f168201915b505050505082828151811061189c5761189b6131d1565b5b602002602001018190525080806118b29061322f565b91505061175b565b5080915050919050565b60066020528060005260406000206000915090508060000180546118e7906132a6565b80601f0160208091040260200160405190810160405280929190818152602001828054611913906132a6565b80156119605780601f1061193557610100808354040283529160200191611960565b820191906000526020600020905b81548152906001019060200180831161194357829003601f168201915b5050505050908060010160009054906101000a900473ffffffffffffffffffffffffffffffffffffffff16905082565b600960008154809291906119a39061322f565b91905055506040518060c001604052803373ffffffffffffffffffffffffffffffffffffffff1681526020018681526020018581526020018481526020018381526020018281525060016000600954815260200190815260200160002060008201518160000160006101000a81548173ffffffffffffffffffffffffffffffffffffffff021916908373ffffffffffffffffffffffffffffffffffffffff1602179055506020820151816001019081611a5c9190613659565b506040820151816002019081611a729190613659565b506060820151816003019081611a889190613659565b506080820151816004015560a0820151816005019080519060200190611aaf92919061230c565b5090505060005b8151811015611be9576001600060095481526020019081526020016000206003838381518110611ae957611ae86131d1565b5b6020026020010151604051611afe91906131ba565b90815260200160405180910390206000820160009054906101000a900473ffffffffffffffffffffffffffffffffffffffff168160000160006101000a81548173ffffffffffffffffffffffffffffffffffffffff021916908373ffffffffffffffffffffffffffffffffffffffff16021790555060018201816001019081611b879190613775565b5060028201816002019081611b9c9190613775565b5060038201816003019081611bb19190613775565b50600482015481600401556005820181600501908054611bd2929190612365565b509050508080611be19061322f565b915050611ab6565b5060008054906101000a900473ffffffffffffffffffffffffffffffffffffffff1673ffffffffffffffffffffffffffffffffffffffff1663ba3d69d773d44d3581954f8d6578a6f77975904dc378dcbd0d73a7597a561be84c31c97f70343bb4cee01d731a38868988600954604051602001611c699493929190613a92565b6040516020818303038152906040526040518463ffffffff1660e01b8152600401611c9693929190613b8c565b600060405180830381600087803b158015611cb057600080fd5b505af1158015611cc4573d6000803e3d6000fd5b505050503373ffffffffffffffffffffffffffffffffffffffff167f874d4755e4be9f976c7833fc413deb77c1acbf096d6535b71953c36eb838cf4060095487604051611d12929190613bca565b60405180910390a25050505050565b60056020528160005260406000208181548110611d3d57600080fd5b90600052602060002001600091509150508054611d59906132a6565b80601f0160208091040260200160405190810160405280929190818152602001828054611d85906132a6565b8015611dd25780601f10611da757610100808354040283529160200191611dd2565b820191906000526020600020905b815481529060010190602001808311611db557829003601f168201915b505050505081565b6004828051602081018201805184825260208301602085012081835280955050505050508181548110611e0c57600080fd5b906000526020600020016000915091509054906101000a900473ffffffffffffffffffffffffffffffffffffffff1681565b600b6000815480929190611e519061322f565b919050555060405180606001604052803373ffffffffffffffffffffffffffffffffffffffff16815260200183815260200182815250600760003373ffffffffffffffffffffffffffffffffffffffff1673ffffffffffffffffffffffffffffffffffffffff16815260200190815260200160002060008201518160000160006101000a81548173ffffffffffffffffffffffffffffffffffffffff021916908373ffffffffffffffffffffffffffffffffffffffff1602179055506020820151816001019081611f229190613659565b506040820151816002019081611f389190613659565b509050503373ffffffffffffffffffffffffffffffffffffffff167f85fab8e92bf0510a5cb6805fc4c546db423a5700b84984f94e2ddb727b132b6583604051611f829190613088565b60405180910390a25050565b6000600382604051611fa091906131ba565b90815260200160405180910390206001018054611fbc906132a6565b905011611ffe576040517f08c379a0000000000000000000000000000000000000000000000000000000008152600401611ff590613c46565b60405180910390fd5b60005b600560003373ffffffffffffffffffffffffffffffffffffffff1673ffffffffffffffffffffffffffffffffffffffff16815260200190815260200160002080549050811015612146578160405160200161205c91906131ba565b60405160208183030381529060405280519060200120600560003373ffffffffffffffffffffffffffffffffffffffff1673ffffffffffffffffffffffffffffffffffffffff16815260200190815260200160002082815481106120c3576120c26131d1565b5b906000526020600020016040516020016120dd9190613ce9565b6040516020818303038152906040528051906020012003612133576040517f08c379a000000000000000000000000000000000000000000000000000000000815260040161212a90613d4c565b60405180910390fd5b808061213e9061322f565b915050612001565b50600560003373ffffffffffffffffffffffffffffffffffffffff1673ffffffffffffffffffffffffffffffffffffffff168152602001908152602001600020819080600181540180825580915050600190039060005260206000200160009091909190915090816121b89190613659565b506004816040516121c991906131ba565b9081526020016040518091039020339080600181540180825580915050600190039060005260206000200160009091909190916101000a81548173ffffffffffffffffffffffffffffffffffffffff021916908373ffffffffffffffffffffffffffffffffffffffff1602179055503373ffffffffffffffffffffffffffffffffffffffff167f6a9cd22100dd4a33e9185d27216965cc4e2653af8a6d90823a3d12d521ea88b48260405161227e9190613088565b60405180910390a250565b6040518060600160405280600073ffffffffffffffffffffffffffffffffffffffff16815260200160008152602001606081525090565b6040518060c00160405280600073ffffffffffffffffffffffffffffffffffffffff16815260200160608152602001606081526020016060815260200160008152602001606081525090565b828054828255906000526020600020908101928215612354579160200282015b828111156123535782518290816123439190613659565b509160200191906001019061232c565b5b50905061236191906123c2565b5090565b8280548282559060005260206000209081019282156123b15760005260206000209182015b828111156123b057828290816123a09190613775565b509160010191906001019061238a565b5b5090506123be91906123c2565b5090565b5b808211156123e257600081816123d991906123e6565b506001016123c3565b5090565b5080546123f2906132a6565b6000825580601f106124045750612423565b601f0160209004906000526020600020908101906124229190612426565b5b50565b5b8082111561243f576000816000905550600101612427565b5090565b6000819050919050565b61245681612443565b82525050565b6000602082019050612471600083018461244d565b92915050565b6000604051905090565b600080fd5b600080fd5b600080fd5b600080fd5b6000601f19601f8301169050919050565b7f4e487b7100000000000000000000000000000000000000000000000000000000600052604160045260246000fd5b6124de82612495565b810181811067ffffffffffffffff821117156124fd576124fc6124a6565b5b80604052505050565b6000612510612477565b905061251c82826124d5565b919050565b600067ffffffffffffffff82111561253c5761253b6124a6565b5b61254582612495565b9050602081019050919050565b82818337600083830152505050565b600061257461256f84612521565b612506565b9050828152602081018484840111156125905761258f612490565b5b61259b848285612552565b509392505050565b600082601f8301126125b8576125b761248b565b5b81356125c8848260208601612561565b91505092915050565b6000602082840312156125e7576125e6612481565b5b600082013567ffffffffffffffff81111561260557612604612486565b5b612611848285016125a3565b91505092915050565b600081519050919050565b600082825260208201905092915050565b6000819050602082019050919050565b600073ffffffffffffffffffffffffffffffffffffffff82169050919050565b600061267182612646565b9050919050565b61268181612666565b82525050565b60006126938383612678565b60208301905092915050565b6000602082019050919050565b60006126b78261261a565b6126c18185612625565b93506126cc83612636565b8060005b838110156126fd5781516126e48882612687565b97506126ef8361269f565b9250506001810190506126d0565b5085935050505092915050565b6000602082019050818103600083015261272481846126ac565b905092915050565b61273581612666565b811461274057600080fd5b50565b6000813590506127528161272c565b92915050565b60006020828403121561276e5761276d612481565b5b600061277c84828501612743565b91505092915050565b61278e81612666565b82525050565b600081519050919050565b600082825260208201905092915050565b60005b838110156127ce5780820151818401526020810190506127b3565b60008484015250505050565b60006127e582612794565b6127ef818561279f565b93506127ff8185602086016127b0565b61280881612495565b840191505092915050565b60006060820190506128286000830186612785565b818103602083015261283a81856127da565b9050818103604083015261284e81846127da565b9050949350505050565b600060208201905061286d6000830184612785565b92915050565b61287c81612443565b811461288757600080fd5b50565b60008135905061289981612873565b92915050565b6000602082840312156128b5576128b4612481565b5b60006128c38482850161288a565b91505092915050565b600081519050919050565b600082825260208201905092915050565b6000819050602082019050919050565b61290181612443565b82525050565b600082825260208201905092915050565b600061292382612794565b61292d8185612907565b935061293d8185602086016127b0565b61294681612495565b840191505092915050565b60006060830160008301516129696000860182612678565b50602083015161297c60208601826128f8565b50604083015184820360408601526129948282612918565b9150508091505092915050565b60006129ad8383612951565b905092915050565b6000602082019050919050565b60006129cd826128cc565b6129d781856128d7565b9350836020820285016129e9856128e8565b8060005b85811015612a255784840389528151612a0685826129a1565b9450612a11836129b5565b925060208a019950506001810190506129ed565b50829750879550505050505092915050565b60006020820190508181036000830152612a5181846129c2565b905092915050565b600060a082019050612a6e6000830188612785565b8181036020830152612a8081876127da565b90508181036040830152612a9481866127da565b90508181036060830152612aa881856127da565b9050612ab7608083018461244d565b9695505050505050565b600081519050919050565b600082825260208201905092915050565b6000819050602082019050919050565b600081519050919050565b600082825260208201905092915050565b6000819050602082019050919050565b6000612b258383612918565b905092915050565b6000602082019050919050565b6000612b4582612aed565b612b4f8185612af8565b935083602082028501612b6185612b09565b8060005b85811015612b9d5784840389528151612b7e8582612b19565b9450612b8983612b2d565b925060208a01995050600181019050612b65565b50829750879550505050505092915050565b600060c083016000830151612bc76000860182612678565b5060208301518482036020860152612bdf8282612918565b91505060408301518482036040860152612bf98282612918565b91505060608301518482036060860152612c138282612918565b9150506080830151612c2860808601826128f8565b5060a083015184820360a0860152612c408282612b3a565b9150508091505092915050565b6000612c598383612baf565b905092915050565b6000602082019050919050565b6000612c7982612ac1565b612c838185612acc565b935083602082028501612c9585612add565b8060005b85811015612cd15784840389528151612cb28582612c4d565b9450612cbd83612c61565b925060208a01995050600181019050612c99565b50829750879550505050505092915050565b60006020820190508181036000830152612cfd8184612c6e565b905092915050565b6000606082019050612d1a6000830186612785565b612d27602083018561244d565b8181036040830152612d3981846127da565b9050949350505050565b60008060408385031215612d5a57612d59612481565b5b6000612d688582860161288a565b925050602083013567ffffffffffffffff811115612d8957612d88612486565b5b612d95858286016125a3565b9150509250929050565b600082825260208201905092915050565b6000612dbb82612aed565b612dc58185612d9f565b935083602082028501612dd785612b09565b8060005b85811015612e135784840389528151612df48582612b19565b9450612dff83612b2d565b925060208a01995050600181019050612ddb565b50829750879550505050505092915050565b60006020820190508181036000830152612e3f8184612db0565b905092915050565b60006040820190508181036000830152612e6181856127da565b9050612e706020830184612785565b9392505050565b600067ffffffffffffffff821115612e9257612e916124a6565b5b602082029050602081019050919050565b600080fd5b6000612ebb612eb684612e77565b612506565b90508083825260208201905060208402830185811115612ede57612edd612ea3565b5b835b81811015612f2557803567ffffffffffffffff811115612f0357612f0261248b565b5b808601612f1089826125a3565b85526020850194505050602081019050612ee0565b5050509392505050565b600082601f830112612f4457612f4361248b565b5b8135612f54848260208601612ea8565b91505092915050565b600080600080600060a08688031215612f7957612f78612481565b5b600086013567ffffffffffffffff811115612f9757612f96612486565b5b612fa3888289016125a3565b955050602086013567ffffffffffffffff811115612fc457612fc3612486565b5b612fd0888289016125a3565b945050604086013567ffffffffffffffff811115612ff157612ff0612486565b5b612ffd888289016125a3565b935050606061300e8882890161288a565b925050608086013567ffffffffffffffff81111561302f5761302e612486565b5b61303b88828901612f2f565b9150509295509295909350565b6000806040838503121561305f5761305e612481565b5b600061306d85828601612743565b925050602061307e8582860161288a565b9150509250929050565b600060208201905081810360008301526130a281846127da565b905092915050565b600080604083850312156130c1576130c0612481565b5b600083013567ffffffffffffffff8111156130df576130de612486565b5b6130eb858286016125a3565b92505060206130fc8582860161288a565b9150509250929050565b6000806040838503121561311d5761311c612481565b5b600083013567ffffffffffffffff81111561313b5761313a612486565b5b613147858286016125a3565b925050602083013567ffffffffffffffff81111561316857613167612486565b5b613174858286016125a3565b9150509250929050565b600081905092915050565b600061319482612794565b61319e818561317e565b93506131ae8185602086016127b0565b80840191505092915050565b60006131c68284613189565b915081905092915050565b7f4e487b7100000000000000000000000000000000000000000000000000000000600052603260045260246000fd5b7f4e487b7100000000000000000000000000000000000000000000000000000000600052601160045260246000fd5b600061323a82612443565b91507fffffffffffffffffffffffffffffffffffffffffffffffffffffffffffffffff820361326c5761326b613200565b5b600182019050919050565b7f4e487b7100000000000000000000000000000000000000000000000000000000600052602260045260246000fd5b600060028204905060018216806132be57607f821691505b6020821081036132d1576132d0613277565b5b50919050565b7f496e76616c6964206a6f62204944000000000000000000000000000000000000600082015250565b600061330d600e8361279f565b9150613318826132d7565b602082019050919050565b6000602082019050818103600083015261333c81613300565b9050919050565b7f4f6e6c792074686520656d706c6f7965722063616e2076696577206170706c6960008201527f636174696f6e7320666f722074686973206a6f62000000000000000000000000602082015250565b600061339f60348361279f565b91506133aa82613343565b604082019050919050565b600060208201905081810360008301526133ce81613392565b9050919050565b7f557365726e616d652063616e6e6f7420626520656d7074790000000000000000600082015250565b600061340b60188361279f565b9150613416826133d5565b602082019050919050565b6000602082019050818103600083015261343a816133fe565b9050919050565b7f5573657220616c72656164792065786973747300000000000000000000000000600082015250565b600061347760138361279f565b915061348282613441565b602082019050919050565b600060208201905081810360008301526134a68161346a565b9050919050565b60008190508160005260206000209050919050565b60006020601f8301049050919050565b600082821b905092915050565b60006008830261350f7fffffffffffffffffffffffffffffffffffffffffffffffffffffffffffffffff826134d2565b61351986836134d2565b95508019841693508086168417925050509392505050565b6000819050919050565b600061355661355161354c84612443565b613531565b612443565b9050919050565b6000819050919050565b6135708361353b565b61358461357c8261355d565b8484546134df565b825550505050565b600090565b61359961358c565b6135a4818484613567565b505050565b5b818110156135c8576135bd600082613591565b6001810190506135aa565b5050565b601f82111561360d576135de816134ad565b6135e7846134c2565b810160208510156135f6578190505b61360a613602856134c2565b8301826135a9565b50505b505050565b600082821c905092915050565b600061363060001984600802613612565b1980831691505092915050565b6000613649838361361f565b9150826002028217905092915050565b61366282612794565b67ffffffffffffffff81111561367b5761367a6124a6565b5b61368582546132a6565b6136908282856135cc565b600060209050601f8311600181146136c357600084156136b1578287015190505b6136bb858261363d565b865550613723565b601f1984166136d1866134ad565b60005b828110156136f9578489015182556001820191506020850194506020810190506136d4565b868310156137165784890151613712601f89168261361f565b8355505b6001600288020188555050505b505050505050565b600061373682612443565b915061374183612443565b925082820390508181111561375957613758613200565b5b92915050565b60008154905061376e816132a6565b9050919050565b81810361378357505061385b565b61378c8261375f565b67ffffffffffffffff8111156137a5576137a46124a6565b5b6137af82546132a6565b6137ba8282856135cc565b6000601f8311600181146137e957600084156137d7578287015490505b6137e1858261363d565b865550613854565b601f1984166137f7876134ad565b9650613802866134ad565b60005b8281101561382a57848901548255600182019150600185019450602081019050613805565b868310156138475784890154613843601f89168261361f565b8355505b6001600288020188555050505b5050505050505b565b7f3000000000000000000000000000000000000000000000000000000000000000600082015250565b600061389360018361317e565b915061389e8261385d565b600182019050919050565b7f2b00000000000000000000000000000000000000000000000000000000000000600082015250565b60006138df60018361317e565b91506138ea826138a9565b600182019050919050565b7f3100000000000000000000000000000000000000000000000000000000000000600082015250565b600061392b60018361317e565b9150613936826138f5565b600182019050919050565b7f4e6577204a6f62203a2000000000000000000000000000000000000000000000600082015250565b6000613977600a8361317e565b915061398282613941565b600a82019050919050565b7f6e6577206a6f622c000000000000000000000000000000000000000000000000600082015250565b60006139c360088361317e565b91506139ce8261398d565b600882019050919050565b7f2061742000000000000000000000000000000000000000000000000000000000600082015250565b6000613a0f60048361317e565b9150613a1a826139d9565b600482019050919050565b7f2440000000000000000000000000000000000000000000000000000000000000600082015250565b6000613a5b60028361317e565b9150613a6682613a25565b600282019050919050565b6000819050919050565b613a8c613a8782612443565b613a71565b82525050565b6000613a9d82613886565b9150613aa8826138d2565b9150613ab38261391e565b9150613abe826138d2565b9150613ac98261396a565b9150613ad58287613189565b9150613ae0826138d2565b9150613aeb826139b6565b9150613af78286613189565b9150613b0282613a02565b9150613b0e8285613189565b9150613b1982613a4e565b9150613b258284613a7b565b60208201915081905095945050505050565b600081519050919050565b600082825260208201905092915050565b6000613b5e82613b37565b613b688185613b42565b9350613b788185602086016127b0565b613b8181612495565b840191505092915050565b6000606082019050613ba16000830186612785565b613bae6020830185612785565b8181036040830152613bc08184613b53565b9050949350505050565b6000604082019050613bdf600083018561244d565b8181036020830152613bf181846127da565b90509392505050565b7f54616720646f6573206e6f742065786973740000000000000000000000000000600082015250565b6000613c3060128361279f565b9150613c3b82613bfa565b602082019050919050565b60006020820190508181036000830152613c5f81613c23565b9050919050565b60008154613c73816132a6565b613c7d818661317e565b94506001821660008114613c985760018114613cad57613ce0565b60ff1983168652811515820286019350613ce0565b613cb6856134ad565b60005b83811015613cd857815481890152600182019150602081019050613cb9565b838801955050505b50505092915050565b6000613cf58284613c66565b915081905092915050565b7f416c7265616479207375627363726962656420746f2074686973207461670000600082015250565b6000613d36601e8361279f565b9150613d4182613d00565b602082019050919050565b60006020820190508181036000830152613d6581613d29565b905091905056fea26469706673582212205e6f7d019496af2d1ade4c201aaae4a960bfb79084ec7d79183cb40057805bce64736f6c63430008130033",
  "linkReferences": {},
  "deployedLinkReferences": {}
}